{
  "address": "0x27799d1336b7e66c115CA0Bb6B331c9fD2248f7c",
  "abi": [
    {
      "anonymous": false,
      "inputs": [
        {
          "indexed": true,
          "internalType": "uint256",
          "name": "tokenId1",
          "type": "uint256"
        },
        {
          "indexed": true,
          "internalType": "uint256",
          "name": "tokenId2",
          "type": "uint256"
        },
        {
          "indexed": true,
          "internalType": "uint256",
          "name": "winner",
          "type": "uint256"
        }
      ],
      "name": "BattleCommenced",
      "type": "event"
    },
    {
      "inputs": [],
      "name": "accountImplementation",
      "outputs": [
        {
          "internalType": "contract IERC6551Account",
          "name": "",
          "type": "address"
        }
      ],
      "stateMutability": "view",
      "type": "function"
    },
    {
      "inputs": [],
      "name": "avatarContract",
      "outputs": [
        {
          "internalType": "contract IBGAvatars",
          "name": "",
          "type": "address"
        }
      ],
      "stateMutability": "view",
      "type": "function"
    },
    {
      "inputs": [
        {
          "internalType": "uint256",
          "name": "tokenId1",
          "type": "uint256"
        },
        {
          "internalType": "uint256",
          "name": "tokenId2",
          "type": "uint256"
        }
      ],
      "name": "battle",
      "outputs": [],
      "stateMutability": "nonpayable",
      "type": "function"
    },
    {
      "inputs": [
        {
          "internalType": "address",
          "name": "_avatarContract",
          "type": "address"
        },
        {
          "internalType": "address payable",
          "name": "_accountImplementation",
          "type": "address"
        },
        {
          "internalType": "address",
          "name": "_registry",
          "type": "address"
        }
      ],
      "name": "initialize",
      "outputs": [],
      "stateMutability": "nonpayable",
      "type": "function"
    },
    {
      "inputs": [],
      "name": "registry",
      "outputs": [
        {
          "internalType": "contract IERC6551Registry",
          "name": "",
          "type": "address"
        }
      ],
      "stateMutability": "view",
      "type": "function"
    }
  ],
  "transactionHash": "0xa2f334ca679eea3e7eda8db77c10ea85dcae0fc5fcb0b16cfb84f9dbe1133569",
  "args": [],
  "numDeployments": 1,
  "solcInputHash": "de26ddf003584f2efceb651fc72ea40e",
  "bytecode": "0x608060405234801561001057600080fd5b50610b6a806100206000396000f3fe608060405234801561001057600080fd5b50600436106100575760003560e01c806311464fbe1461005c5780632a0c52211461007a57806345f0791d146100965780637b103999146100b4578063c0c53b8b146100d2575b600080fd5b6100646100ee565b6040516100719190610763565b60405180910390f35b610094600480360381019061008f91906107b9565b610114565b005b61009e6105d3565b6040516100ab919061082c565b60405180910390f35b6100bc6105f7565b6040516100c99190610868565b60405180910390f35b6100ec60048036038101906100e791906108ff565b61061d565b005b600160009054906101000a900473ffffffffffffffffffffffffffffffffffffffff1681565b6000600260009054906101000a900473ffffffffffffffffffffffffffffffffffffffff1673ffffffffffffffffffffffffffffffffffffffff16635e9bc536600160009054906101000a900473ffffffffffffffffffffffffffffffffffffffff164660008054906101000a900473ffffffffffffffffffffffffffffffffffffffff1687886040518663ffffffff1660e01b81526004016101bb959493929190610970565b602060405180830381865afa1580156101d8573d6000803e3d6000fd5b505050506040513d601f19601f820116820180604052508101906101fc91906109d8565b90506000600260009054906101000a900473ffffffffffffffffffffffffffffffffffffffff1673ffffffffffffffffffffffffffffffffffffffff16635e9bc536600160009054906101000a900473ffffffffffffffffffffffffffffffffffffffff164660008054906101000a900473ffffffffffffffffffffffffffffffffffffffff1687886040518663ffffffff1660e01b81526004016102a5959493929190610970565b602060405180830381865afa1580156102c2573d6000803e3d6000fd5b505050506040513d601f19601f820116820180604052508101906102e691906109d8565b90506000620186a042448760405160200161030393929190610a26565b6040516020818303038152906040528051906020012060001c6103269190610a92565b90506000620186a042448760405160200161034393929190610a26565b6040516020818303038152906040528051906020012060001c6103669190610a92565b90508082111561049b5760008054906101000a900473ffffffffffffffffffffffffffffffffffffffff1673ffffffffffffffffffffffffffffffffffffffff166317ae6aff866040518263ffffffff1660e01b81526004016103c99190610ac3565b600060405180830381600087803b1580156103e357600080fd5b505af11580156103f7573d6000803e3d6000fd5b505050508373ffffffffffffffffffffffffffffffffffffffff1663ac09de4f600a6040518263ffffffff1660e01b81526004016104359190610b19565b600060405180830381600087803b15801561044f57600080fd5b505af1158015610463573d6000803e3d6000fd5b505050508585877f33515132930854e3a6ed49dc7eb3159be8d1c21905ebcbc6ab9ae972e728885960405160405180910390a46105cb565b808210156105ca5760008054906101000a900473ffffffffffffffffffffffffffffffffffffffff1673ffffffffffffffffffffffffffffffffffffffff166317ae6aff876040518263ffffffff1660e01b81526004016104fc9190610ac3565b600060405180830381600087803b15801561051657600080fd5b505af115801561052a573d6000803e3d6000fd5b505050508273ffffffffffffffffffffffffffffffffffffffff1663ac09de4f600a6040518263ffffffff1660e01b81526004016105689190610b19565b600060405180830381600087803b15801561058257600080fd5b505af1158015610596573d6000803e3d6000fd5b505050508485877f33515132930854e3a6ed49dc7eb3159be8d1c21905ebcbc6ab9ae972e728885960405160405180910390a45b5b505050505050565b60008054906101000a900473ffffffffffffffffffffffffffffffffffffffff1681565b600260009054906101000a900473ffffffffffffffffffffffffffffffffffffffff1681565b826000806101000a81548173ffffffffffffffffffffffffffffffffffffffff021916908373ffffffffffffffffffffffffffffffffffffffff16021790555081600160006101000a81548173ffffffffffffffffffffffffffffffffffffffff021916908373ffffffffffffffffffffffffffffffffffffffff16021790555080600260006101000a81548173ffffffffffffffffffffffffffffffffffffffff021916908373ffffffffffffffffffffffffffffffffffffffff160217905550505050565b600073ffffffffffffffffffffffffffffffffffffffff82169050919050565b6000819050919050565b600061072961072461071f846106e4565b610704565b6106e4565b9050919050565b600061073b8261070e565b9050919050565b600061074d82610730565b9050919050565b61075d81610742565b82525050565b60006020820190506107786000830184610754565b92915050565b600080fd5b6000819050919050565b61079681610783565b81146107a157600080fd5b50565b6000813590506107b38161078d565b92915050565b600080604083850312156107d0576107cf61077e565b5b60006107de858286016107a4565b92505060206107ef858286016107a4565b9150509250929050565b60006108048261070e565b9050919050565b6000610816826107f9565b9050919050565b6108268161080b565b82525050565b6000602082019050610841600083018461081d565b92915050565b6000610852826107f9565b9050919050565b61086281610847565b82525050565b600060208201905061087d6000830184610859565b92915050565b600061088e826106e4565b9050919050565b61089e81610883565b81146108a957600080fd5b50565b6000813590506108bb81610895565b92915050565b60006108cc826106e4565b9050919050565b6108dc816108c1565b81146108e757600080fd5b50565b6000813590506108f9816108d3565b92915050565b6000806000606084860312156109185761091761077e565b5b6000610926868287016108ac565b9350506020610937868287016108ea565b9250506040610948868287016108ac565b9150509250925092565b61095b81610883565b82525050565b61096a81610783565b82525050565b600060a0820190506109856000830188610952565b6109926020830187610961565b61099f6040830186610952565b6109ac6060830185610961565b6109b96080830184610961565b9695505050505050565b6000815190506109d281610895565b92915050565b6000602082840312156109ee576109ed61077e565b5b60006109fc848285016109c3565b91505092915050565b6000819050919050565b610a20610a1b82610783565b610a05565b82525050565b6000610a328286610a0f565b602082019150610a428285610a0f565b602082019150610a528284610a0f565b602082019150819050949350505050565b7f4e487b7100000000000000000000000000000000000000000000000000000000600052601260045260246000fd5b6000610a9d82610783565b9150610aa883610783565b925082610ab857610ab7610a63565b5b828206905092915050565b6000602082019050610ad86000830184610961565b92915050565b6000819050919050565b6000610b03610afe610af984610ade565b610704565b610783565b9050919050565b610b1381610ae8565b82525050565b6000602082019050610b2e6000830184610b0a565b9291505056fea2646970667358221220a17cbecfeafc151454e975a72612a0d7fcb7fd3fe01ce17ff499ecc717fef87264736f6c63430008120033",
  "devdoc": {
    "kind": "dev",
    "methods": {},
    "version": 1
  },
  "userdoc": {
    "kind": "user",
    "methods": {},
    "version": 1
  },
  "storageLayout": {
    "storage": [
      {
        "astId": 2193,
        "contract": "contracts/Battle.sol:Battle",
        "label": "avatarContract",
        "offset": 0,
        "slot": "0",
        "type": "t_contract(IBGAvatars)2383"
      },
      {
        "astId": 2196,
        "contract": "contracts/Battle.sol:Battle",
        "label": "accountImplementation",
        "offset": 0,
        "slot": "1",
        "type": "t_contract(IERC6551Account)2417"
      },
      {
        "astId": 2199,
        "contract": "contracts/Battle.sol:Battle",
        "label": "registry",
        "offset": 0,
        "slot": "2",
        "type": "t_contract(IERC6551Registry)2495"
      }
    ],
    "types": {
      "t_contract(IBGAvatars)2383": {
        "encoding": "inplace",
        "label": "contract IBGAvatars",
        "numberOfBytes": "20"
      },
      "t_contract(IERC6551Account)2417": {
        "encoding": "inplace",
        "label": "contract IERC6551Account",
        "numberOfBytes": "20"
      },
      "t_contract(IERC6551Registry)2495": {
        "encoding": "inplace",
        "label": "contract IERC6551Registry",
        "numberOfBytes": "20"
      }
    }
  }
}