{
  "address": "0x454079063f0d3bde1CaC04cE9310B30dC35EBd65",
  "abi": [
    {
      "inputs": [
        {
          "internalType": "address",
          "name": "to",
          "type": "address"
        },
        {
          "internalType": "uint256",
          "name": "value",
          "type": "uint256"
        },
        {
          "internalType": "bytes",
          "name": "data",
          "type": "bytes"
        },
        {
          "internalType": "uint256",
          "name": "operation",
          "type": "uint256"
        }
      ],
      "name": "execute",
      "outputs": [
        {
          "internalType": "bytes",
          "name": "result",
          "type": "bytes"
        }
      ],
      "stateMutability": "payable",
      "type": "function"
    },
    {
      "inputs": [],
      "name": "experience",
      "outputs": [
        {
          "internalType": "uint256",
          "name": "",
          "type": "uint256"
        }
      ],
      "stateMutability": "view",
      "type": "function"
    },
    {
      "inputs": [
        {
          "internalType": "uint256",
          "name": "amount",
          "type": "uint256"
        }
      ],
      "name": "increaseExperience",
      "outputs": [],
      "stateMutability": "nonpayable",
      "type": "function"
    },
    {
      "inputs": [
        {
          "internalType": "bytes32",
          "name": "hash",
          "type": "bytes32"
        },
        {
          "internalType": "bytes",
          "name": "signature",
          "type": "bytes"
        }
      ],
      "name": "isValidSignature",
      "outputs": [
        {
          "internalType": "bytes4",
          "name": "magicValue",
          "type": "bytes4"
        }
      ],
      "stateMutability": "view",
      "type": "function"
    },
    {
      "inputs": [
        {
          "internalType": "address",
          "name": "signer",
          "type": "address"
        },
        {
          "internalType": "bytes",
          "name": "",
          "type": "bytes"
        }
      ],
      "name": "isValidSigner",
      "outputs": [
        {
          "internalType": "bytes4",
          "name": "",
          "type": "bytes4"
        }
      ],
      "stateMutability": "view",
      "type": "function"
    },
    {
      "inputs": [
        {
          "internalType": "address",
          "name": "",
          "type": "address"
        },
        {
          "internalType": "address",
          "name": "",
          "type": "address"
        },
        {
          "internalType": "uint256[]",
          "name": "",
          "type": "uint256[]"
        },
        {
          "internalType": "uint256[]",
          "name": "",
          "type": "uint256[]"
        },
        {
          "internalType": "bytes",
          "name": "",
          "type": "bytes"
        }
      ],
      "name": "onERC1155BatchReceived",
      "outputs": [
        {
          "internalType": "bytes4",
          "name": "",
          "type": "bytes4"
        }
      ],
      "stateMutability": "pure",
      "type": "function"
    },
    {
      "inputs": [
        {
          "internalType": "address",
          "name": "",
          "type": "address"
        },
        {
          "internalType": "address",
          "name": "",
          "type": "address"
        },
        {
          "internalType": "uint256",
          "name": "",
          "type": "uint256"
        },
        {
          "internalType": "uint256",
          "name": "",
          "type": "uint256"
        },
        {
          "internalType": "bytes",
          "name": "",
          "type": "bytes"
        }
      ],
      "name": "onERC1155Received",
      "outputs": [
        {
          "internalType": "bytes4",
          "name": "",
          "type": "bytes4"
        }
      ],
      "stateMutability": "pure",
      "type": "function"
    },
    {
      "inputs": [
        {
          "internalType": "address",
          "name": "",
          "type": "address"
        },
        {
          "internalType": "address",
          "name": "",
          "type": "address"
        },
        {
          "internalType": "uint256",
          "name": "",
          "type": "uint256"
        },
        {
          "internalType": "bytes",
          "name": "",
          "type": "bytes"
        }
      ],
      "name": "onERC721Received",
      "outputs": [
        {
          "internalType": "bytes4",
          "name": "",
          "type": "bytes4"
        }
      ],
      "stateMutability": "pure",
      "type": "function"
    },
    {
      "inputs": [],
      "name": "owner",
      "outputs": [
        {
          "internalType": "address",
          "name": "",
          "type": "address"
        }
      ],
      "stateMutability": "view",
      "type": "function"
    },
    {
      "inputs": [],
      "name": "state",
      "outputs": [
        {
          "internalType": "uint256",
          "name": "",
          "type": "uint256"
        }
      ],
      "stateMutability": "view",
      "type": "function"
    },
    {
      "inputs": [
        {
          "internalType": "bytes4",
          "name": "interfaceId",
          "type": "bytes4"
        }
      ],
      "name": "supportsInterface",
      "outputs": [
        {
          "internalType": "bool",
          "name": "",
          "type": "bool"
        }
      ],
      "stateMutability": "pure",
      "type": "function"
    },
    {
      "inputs": [],
      "name": "token",
      "outputs": [
        {
          "internalType": "uint256",
          "name": "",
          "type": "uint256"
        },
        {
          "internalType": "address",
          "name": "",
          "type": "address"
        },
        {
          "internalType": "uint256",
          "name": "",
          "type": "uint256"
        }
      ],
      "stateMutability": "view",
      "type": "function"
    },
    {
      "stateMutability": "payable",
      "type": "receive"
    }
  ],
  "transactionHash": "0x8d1ae4a25156b0f22e9f2351676fe7abee935298b3ee22963ce86e310e0f1dd9",
  "args": [],
  "numDeployments": 1,
  "solcInputHash": "fc144a06f58072d51d67291e0a3572b2",
  "bytecode": "0x608060405234801561001057600080fd5b50611802806100206000396000f3fe6080604052600436106100ab5760003560e01c8063ac09de4f11610064578063ac09de4f14610206578063b3523b4a1461022f578063bc197c811461025a578063c19d93fb14610297578063f23a6e61146102c2578063fc0c546a146102ff576100b2565b806301ffc9a7146100b7578063150b7a02146100f45780631626ba7e14610131578063523e32601461016e57806374420f4c146101ab5780638da5cb5b146101db576100b2565b366100b257005b600080fd5b3480156100c357600080fd5b506100de60048036038101906100d99190610b3d565b61032c565b6040516100eb9190610b85565b60405180910390f35b34801561010057600080fd5b5061011b60048036038101906101169190610c99565b610466565b6040516101289190610d30565b60405180910390f35b34801561013d57600080fd5b5061015860048036038101906101539190610ec2565b61047b565b6040516101659190610d30565b60405180910390f35b34801561017a57600080fd5b5061019560048036038101906101909190610f1e565b6104b4565b6040516101a29190610d30565b60405180910390f35b6101c560048036038101906101c09190610f7e565b6104e2565b6040516101d29190611085565b60405180910390f35b3480156101e757600080fd5b506101f0610610565b6040516101fd91906110b6565b60405180910390f35b34801561021257600080fd5b5061022d600480360381019061022891906110d1565b6106ba565b005b34801561023b57600080fd5b506102446106d6565b604051610251919061110d565b60405180910390f35b34801561026657600080fd5b50610281600480360381019061027c91906111eb565b6106dc565b60405161028e9190610d30565b60405180910390f35b3480156102a357600080fd5b506102ac6106f1565b6040516102b9919061110d565b60405180910390f35b3480156102ce57600080fd5b506102e960048036038101906102e491906112ba565b6106f7565b6040516102f69190610d30565b60405180910390f35b34801561030b57600080fd5b5061031461070c565b60405161032393929190611351565b60405180910390f35b60007f01ffc9a7000000000000000000000000000000000000000000000000000000007bffffffffffffffffffffffffffffffffffffffffffffffffffffffff1916827bffffffffffffffffffffffffffffffffffffffffffffffffffffffff191614806103f757507f6faff5f1000000000000000000000000000000000000000000000000000000007bffffffffffffffffffffffffffffffffffffffffffffffffffffffff1916827bffffffffffffffffffffffffffffffffffffffffffffffffffffffff1916145b8061045f57507f74420f4c000000000000000000000000000000000000000000000000000000007bffffffffffffffffffffffffffffffffffffffffffffffffffffffff1916827bffffffffffffffffffffffffffffffffffffffffffffffffffffffff1916145b9050919050565b600063150b7a0260e01b905095945050505050565b600080610490610489610610565b858561078c565b905080156104a857631626ba7e60e01b9150506104ae565b60009150505b92915050565b60006104bf8461081b565b156104d35763523e326060e01b90506104db565b600060e01b90505b9392505050565b60606104ed3361081b565b61052c576040517f08c379a0000000000000000000000000000000000000000000000000000000008152600401610523906113e5565b60405180910390fd5b6000821461056f576040517f08c379a000000000000000000000000000000000000000000000000000000000815260040161056690611477565b60405180910390fd5b600080815461057d906114c6565b9190508190555060008673ffffffffffffffffffffffffffffffffffffffff168686866040516105ae92919061153e565b60006040518083038185875af1925050503d80600081146105eb576040519150601f19603f3d011682016040523d82523d6000602084013e6105f0565b606091505b5080935081925050508061060657815160208301fd5b5095945050505050565b60008060008061061e61070c565b92509250925046831461063757600093505050506106b7565b8173ffffffffffffffffffffffffffffffffffffffff16636352211e826040518263ffffffff1660e01b8152600401610670919061110d565b602060405180830381865afa15801561068d573d6000803e3d6000fd5b505050506040513d601f19601f820116820180604052508101906106b1919061156c565b93505050505b90565b80600160008282546106cc9190611599565b9250508190555050565b60015481565b600063bc197c8160e01b905095945050505050565b60005481565b600063f23a6e6160e01b905095945050505050565b600080600080606067ffffffffffffffff81111561072d5761072c610d97565b5b6040519080825280601f01601f19166020018201604052801561075f5781602001600182028036833780820191505090505b5090506060604d60208301303c808060200190518101906107809190611620565b93509350935050909192565b600080600061079b858561085a565b91509150600060048111156107b3576107b2611673565b5b8160048111156107c6576107c5611673565b5b1480156107fe57508573ffffffffffffffffffffffffffffffffffffffff168273ffffffffffffffffffffffffffffffffffffffff16145b80610810575061080f8686866108ab565b5b925050509392505050565b6000610825610610565b73ffffffffffffffffffffffffffffffffffffffff168273ffffffffffffffffffffffffffffffffffffffff16149050919050565b600080604183510361089b5760008060006020860151925060408601519150606086015160001a905061088f878285856109ef565b945094505050506108a4565b60006002915091505b9250929050565b60008060008573ffffffffffffffffffffffffffffffffffffffff16631626ba7e60e01b86866040516024016108e29291906116b1565b604051602081830303815290604052907bffffffffffffffffffffffffffffffffffffffffffffffffffffffff19166020820180517bffffffffffffffffffffffffffffffffffffffffffffffffffffffff838183161783525050505060405161094c9190611712565b600060405180830381855afa9150503d8060008114610987576040519150601f19603f3d011682016040523d82523d6000602084013e61098c565b606091505b50915091508180156109a057506020815110155b80156109e45750631626ba7e60e01b7bffffffffffffffffffffffffffffffffffffffffffffffffffffffff1916818060200190518101906109e2919061173e565b145b925050509392505050565b6000807f7fffffffffffffffffffffffffffffff5d576e7357a4501ddfe92f46681b20a08360001c1115610a2a576000600391509150610ac8565b600060018787878760405160008152602001604052604051610a4f9493929190611787565b6020604051602081039080840390855afa158015610a71573d6000803e3d6000fd5b505050602060405103519050600073ffffffffffffffffffffffffffffffffffffffff168173ffffffffffffffffffffffffffffffffffffffff1603610abf57600060019250925050610ac8565b80600092509250505b94509492505050565b6000604051905090565b600080fd5b600080fd5b60007fffffffff0000000000000000000000000000000000000000000000000000000082169050919050565b610b1a81610ae5565b8114610b2557600080fd5b50565b600081359050610b3781610b11565b92915050565b600060208284031215610b5357610b52610adb565b5b6000610b6184828501610b28565b91505092915050565b60008115159050919050565b610b7f81610b6a565b82525050565b6000602082019050610b9a6000830184610b76565b92915050565b600073ffffffffffffffffffffffffffffffffffffffff82169050919050565b6000610bcb82610ba0565b9050919050565b610bdb81610bc0565b8114610be657600080fd5b50565b600081359050610bf881610bd2565b92915050565b6000819050919050565b610c1181610bfe565b8114610c1c57600080fd5b50565b600081359050610c2e81610c08565b92915050565b600080fd5b600080fd5b600080fd5b60008083601f840112610c5957610c58610c34565b5b8235905067ffffffffffffffff811115610c7657610c75610c39565b5b602083019150836001820283011115610c9257610c91610c3e565b5b9250929050565b600080600080600060808688031215610cb557610cb4610adb565b5b6000610cc388828901610be9565b9550506020610cd488828901610be9565b9450506040610ce588828901610c1f565b935050606086013567ffffffffffffffff811115610d0657610d05610ae0565b5b610d1288828901610c43565b92509250509295509295909350565b610d2a81610ae5565b82525050565b6000602082019050610d456000830184610d21565b92915050565b6000819050919050565b610d5e81610d4b565b8114610d6957600080fd5b50565b600081359050610d7b81610d55565b92915050565b600080fd5b6000601f19601f8301169050919050565b7f4e487b7100000000000000000000000000000000000000000000000000000000600052604160045260246000fd5b610dcf82610d86565b810181811067ffffffffffffffff82111715610dee57610ded610d97565b5b80604052505050565b6000610e01610ad1565b9050610e0d8282610dc6565b919050565b600067ffffffffffffffff821115610e2d57610e2c610d97565b5b610e3682610d86565b9050602081019050919050565b82818337600083830152505050565b6000610e65610e6084610e12565b610df7565b905082815260208101848484011115610e8157610e80610d81565b5b610e8c848285610e43565b509392505050565b600082601f830112610ea957610ea8610c34565b5b8135610eb9848260208601610e52565b91505092915050565b60008060408385031215610ed957610ed8610adb565b5b6000610ee785828601610d6c565b925050602083013567ffffffffffffffff811115610f0857610f07610ae0565b5b610f1485828601610e94565b9150509250929050565b600080600060408486031215610f3757610f36610adb565b5b6000610f4586828701610be9565b935050602084013567ffffffffffffffff811115610f6657610f65610ae0565b5b610f7286828701610c43565b92509250509250925092565b600080600080600060808688031215610f9a57610f99610adb565b5b6000610fa888828901610be9565b9550506020610fb988828901610c1f565b945050604086013567ffffffffffffffff811115610fda57610fd9610ae0565b5b610fe688828901610c43565b93509350506060610ff988828901610c1f565b9150509295509295909350565b600081519050919050565b600082825260208201905092915050565b60005b83811015611040578082015181840152602081019050611025565b60008484015250505050565b600061105782611006565b6110618185611011565b9350611071818560208601611022565b61107a81610d86565b840191505092915050565b6000602082019050818103600083015261109f818461104c565b905092915050565b6110b081610bc0565b82525050565b60006020820190506110cb60008301846110a7565b92915050565b6000602082840312156110e7576110e6610adb565b5b60006110f584828501610c1f565b91505092915050565b61110781610bfe565b82525050565b600060208201905061112260008301846110fe565b92915050565b600067ffffffffffffffff82111561114357611142610d97565b5b602082029050602081019050919050565b600061116761116284611128565b610df7565b9050808382526020820190506020840283018581111561118a57611189610c3e565b5b835b818110156111b3578061119f8882610c1f565b84526020840193505060208101905061118c565b5050509392505050565b600082601f8301126111d2576111d1610c34565b5b81356111e2848260208601611154565b91505092915050565b600080600080600060a0868803121561120757611206610adb565b5b600061121588828901610be9565b955050602061122688828901610be9565b945050604086013567ffffffffffffffff81111561124757611246610ae0565b5b611253888289016111bd565b935050606086013567ffffffffffffffff81111561127457611273610ae0565b5b611280888289016111bd565b925050608086013567ffffffffffffffff8111156112a1576112a0610ae0565b5b6112ad88828901610e94565b9150509295509295909350565b600080600080600060a086880312156112d6576112d5610adb565b5b60006112e488828901610be9565b95505060206112f588828901610be9565b945050604061130688828901610c1f565b935050606061131788828901610c1f565b925050608086013567ffffffffffffffff81111561133857611337610ae0565b5b61134488828901610e94565b9150509295509295909350565b600060608201905061136660008301866110fe565b61137360208301856110a7565b61138060408301846110fe565b949350505050565b600082825260208201905092915050565b7f496e76616c6964207369676e6572000000000000000000000000000000000000600082015250565b60006113cf600e83611388565b91506113da82611399565b602082019050919050565b600060208201905081810360008301526113fe816113c2565b9050919050565b7f4f6e6c792063616c6c206f7065726174696f6e732061726520737570706f727460008201527f6564000000000000000000000000000000000000000000000000000000000000602082015250565b6000611461602283611388565b915061146c82611405565b604082019050919050565b6000602082019050818103600083015261149081611454565b9050919050565b7f4e487b7100000000000000000000000000000000000000000000000000000000600052601160045260246000fd5b60006114d182610bfe565b91507fffffffffffffffffffffffffffffffffffffffffffffffffffffffffffffffff820361150357611502611497565b5b600182019050919050565b600081905092915050565b6000611525838561150e565b9350611532838584610e43565b82840190509392505050565b600061154b828486611519565b91508190509392505050565b60008151905061156681610bd2565b92915050565b60006020828403121561158257611581610adb565b5b600061159084828501611557565b91505092915050565b60006115a482610bfe565b91506115af83610bfe565b92508282019050808211156115c7576115c6611497565b5b92915050565b6000815190506115dc81610c08565b92915050565b60006115ed82610ba0565b9050919050565b6115fd816115e2565b811461160857600080fd5b50565b60008151905061161a816115f4565b92915050565b60008060006060848603121561163957611638610adb565b5b6000611647868287016115cd565b93505060206116588682870161160b565b9250506040611669868287016115cd565b9150509250925092565b7f4e487b7100000000000000000000000000000000000000000000000000000000600052602160045260246000fd5b6116ab81610d4b565b82525050565b60006040820190506116c660008301856116a2565b81810360208301526116d8818461104c565b90509392505050565b60006116ec82611006565b6116f6818561150e565b9350611706818560208601611022565b80840191505092915050565b600061171e82846116e1565b915081905092915050565b60008151905061173881610d55565b92915050565b60006020828403121561175457611753610adb565b5b600061176284828501611729565b91505092915050565b600060ff82169050919050565b6117818161176b565b82525050565b600060808201905061179c60008301876116a2565b6117a96020830186611778565b6117b660408301856116a2565b6117c360608301846116a2565b9594505050505056fea264697066735822122005ea0e83521556a2a8f16e30b7a2508f4b0a6524076e927d91819a6f972321d164736f6c63430008120033",
  "devdoc": {
    "kind": "dev",
    "methods": {
      "execute(address,uint256,bytes,uint256)": {
        "details": "Executes a low-level operation if the caller is a valid signer on the account Reverts and bubbles up error if operation fails",
        "params": {
          "data": "The encoded operation calldata",
          "operation": "A value indicating the type of operation to perform Accounts implementing this interface MUST accept the following operation parameter values: - 0 = CALL - 1 = DELEGATECALL - 2 = CREATE - 3 = CREATE2 Accounts implementing this interface MAY support additional operations or restrict a signer's ability to execute certain operations",
          "to": "The target address of the operation",
          "value": "The Ether value to be sent to the target"
        },
        "returns": {
          "result": "The result of the operation"
        }
      },
      "isValidSignature(bytes32,bytes)": {
        "details": "Should return whether the signature provided is valid for the provided data",
        "params": {
          "hash": "Hash of the data to be signed",
          "signature": "Signature byte array associated with _data"
        }
      },
      "onERC1155BatchReceived(address,address,uint256[],uint256[],bytes)": {
        "details": "Allows ERC-1155 token batches to be received. This function can be overriden."
      },
      "onERC1155Received(address,address,uint256,uint256,bytes)": {
        "details": "Allows ERC-1155 tokens to be received. This function can be overriden."
      },
      "onERC721Received(address,address,uint256,bytes)": {
        "details": "Allows ERC-721 tokens to be received so long as they do not cause an ownership cycle. This function can be overriden."
      },
      "supportsInterface(bytes4)": {
        "details": "Returns true if this contract implements the interface defined by `interfaceId`. See the corresponding https://eips.ethereum.org/EIPS/eip-165#how-interfaces-are-identified[EIP section] to learn more about how these ids are created. This function call must use less than 30 000 gas."
      },
      "token()": {
        "details": "Returns the identifier of the non-fungible token which owns the account The return value of this function MUST be constant - it MUST NOT change over time",
        "returns": {
          "_0": "      The EIP-155 ID of the chain the token exists on",
          "_1": "The contract address of the token",
          "_2": "      The ID of the token"
        }
      }
    },
    "stateVariables": {
      "state": {
        "details": "Returns a value that SHOULD be modified each time the account changes state",
        "return": "The current account state",
        "returns": {
          "_0": "The current account state"
        }
      }
    },
    "version": 1
  },
  "userdoc": {
    "kind": "user",
    "methods": {},
    "version": 1
  },
  "storageLayout": {
    "storage": [
      {
        "astId": 1889,
        "contract": "contracts/Account.sol:ERC6551Account",
        "label": "state",
        "offset": 0,
        "slot": "0",
        "type": "t_uint256"
      },
      {
        "astId": 1891,
        "contract": "contracts/Account.sol:ERC6551Account",
        "label": "experience",
        "offset": 0,
        "slot": "1",
        "type": "t_uint256"
      }
    ],
    "types": {
      "t_uint256": {
        "encoding": "inplace",
        "label": "uint256",
        "numberOfBytes": "32"
      }
    }
  }
}