{
  "address": "0x1738D43443f3503f243B3DE4742684C4470D4ceD",
  "abi": [
    {
      "anonymous": false,
      "inputs": [
        {
          "indexed": true,
          "internalType": "uint256",
          "name": "tokenId1",
          "type": "uint256"
        },
        {
          "indexed": true,
          "internalType": "uint256",
          "name": "tokenId2",
          "type": "uint256"
        },
        {
          "indexed": true,
          "internalType": "uint256",
          "name": "winner",
          "type": "uint256"
        }
      ],
      "name": "BattleEnded",
      "type": "event"
    },
    {
      "anonymous": false,
      "inputs": [
        {
          "indexed": true,
          "internalType": "uint256",
          "name": "tokenId1",
          "type": "uint256"
        },
        {
          "indexed": true,
          "internalType": "uint256",
          "name": "tokenId2",
          "type": "uint256"
        },
        {
          "indexed": false,
          "internalType": "uint256",
          "name": "damage1",
          "type": "uint256"
        },
        {
          "indexed": false,
          "internalType": "uint256",
          "name": "damage2",
          "type": "uint256"
        }
      ],
      "name": "DamageRound",
      "type": "event"
    },
    {
      "inputs": [],
      "name": "accountContract",
      "outputs": [
        {
          "internalType": "address",
          "name": "",
          "type": "address"
        }
      ],
      "stateMutability": "view",
      "type": "function"
    },
    {
      "inputs": [],
      "name": "avatarContract",
      "outputs": [
        {
          "internalType": "contract ERC721Burnable",
          "name": "",
          "type": "address"
        }
      ],
      "stateMutability": "view",
      "type": "function"
    },
    {
      "inputs": [
        {
          "internalType": "uint256",
          "name": "tokenId1",
          "type": "uint256"
        },
        {
          "internalType": "uint256",
          "name": "tokenId2",
          "type": "uint256"
        }
      ],
      "name": "battle",
      "outputs": [],
      "stateMutability": "nonpayable",
      "type": "function"
    },
    {
      "inputs": [],
      "name": "equipmentContract",
      "outputs": [
        {
          "internalType": "contract IBGEquipment",
          "name": "",
          "type": "address"
        }
      ],
      "stateMutability": "view",
      "type": "function"
    },
    {
      "inputs": [
        {
          "internalType": "address",
          "name": "_avatarContract",
          "type": "address"
        },
        {
          "internalType": "address",
          "name": "_equipmentContract",
          "type": "address"
        },
        {
          "internalType": "address",
          "name": "_accountContract",
          "type": "address"
        },
        {
          "internalType": "address",
          "name": "_registryContract",
          "type": "address"
        }
      ],
      "name": "initialize",
      "outputs": [],
      "stateMutability": "nonpayable",
      "type": "function"
    },
    {
      "inputs": [],
      "name": "registryContract",
      "outputs": [
        {
          "internalType": "contract IERC6551Registry",
          "name": "",
          "type": "address"
        }
      ],
      "stateMutability": "view",
      "type": "function"
    },
    {
      "inputs": [
        {
          "internalType": "address",
          "name": "_accountContract",
          "type": "address"
        }
      ],
      "name": "setAccountContract",
      "outputs": [],
      "stateMutability": "nonpayable",
      "type": "function"
    },
    {
      "inputs": [
        {
          "internalType": "address",
          "name": "_avatarContract",
          "type": "address"
        }
      ],
      "name": "setAvatarContract",
      "outputs": [],
      "stateMutability": "nonpayable",
      "type": "function"
    },
    {
      "inputs": [
        {
          "internalType": "address",
          "name": "_equipmentContract",
          "type": "address"
        }
      ],
      "name": "setEquipmentContract",
      "outputs": [],
      "stateMutability": "nonpayable",
      "type": "function"
    },
    {
      "inputs": [
        {
          "internalType": "address",
          "name": "_registryContract",
          "type": "address"
        }
      ],
      "name": "setRegistryContract",
      "outputs": [],
      "stateMutability": "nonpayable",
      "type": "function"
    }
  ],
  "transactionHash": "0x91b5998e834e74f6cd4af7409446b3ddf1aa17b9693cece1f7b4cd9d449a3e9f",
  "args": [],
  "numDeployments": 1,
  "solcInputHash": "3152a301f7b502ce033d8753e459c87e",
  "bytecode": "0x608060405234801561001057600080fd5b506113be806100206000396000f3fe608060405234801561001057600080fd5b506004361061009e5760003560e01c806347d94e551161006657806347d94e551461013557806352d68d6c146101515780638c19ebc81461016d578063d73a143f14610189578063f8c8765e146101a75761009e565b8063028ebc44146100a3578063119f0ef8146100bf57806328c1f99b146100dd5780632a0c5221146100fb57806345f0791d14610117575b600080fd5b6100bd60048036038101906100b89190610a3a565b6101c3565b005b6100c7610207565b6040516100d49190610ac6565b60405180910390f35b6100e561022d565b6040516100f29190610b02565b60405180910390f35b61011560048036038101906101109190610b53565b610253565b005b61011f61036b565b60405161012c9190610bb4565b60405180910390f35b61014f600480360381019061014a9190610a3a565b61038f565b005b61016b60048036038101906101669190610a3a565b6103d3565b005b61018760048036038101906101829190610a3a565b610417565b005b61019161045a565b60405161019e9190610bde565b60405180910390f35b6101c160048036038101906101bc9190610bf9565b610480565b005b80600360006101000a81548173ffffffffffffffffffffffffffffffffffffffff021916908373ffffffffffffffffffffffffffffffffffffffff16021790555050565b600160009054906101000a900473ffffffffffffffffffffffffffffffffffffffff1681565b600360009054906101000a900473ffffffffffffffffffffffffffffffffffffffff1681565b6000606490506000606490505b6000821180156102705750600081115b156102eb57600061027f610589565b9050600061028b610589565b905080846102999190610c8f565b935081836102a79190610c8f565b925084867f6c5270e1f4e07f122bfc96f082ffca15754a6f2d04b43618d2adcf30a96b8c7f84846040516102dc929190610cd2565b60405180910390a35050610260565b6000821180156102fb5750600081115b1561030f5761030a84846105d0565b610365565b60008111801561031f5750600082115b156103335761032e83856105d0565b610364565b600083857f3f810584fd2e3a93d42c480fbc845c9d1841dca219fef2d58be3077c90a001f560405160405180910390a45b5b50505050565b60008054906101000a900473ffffffffffffffffffffffffffffffffffffffff1681565b80600260006101000a81548173ffffffffffffffffffffffffffffffffffffffff021916908373ffffffffffffffffffffffffffffffffffffffff16021790555050565b80600160006101000a81548173ffffffffffffffffffffffffffffffffffffffff021916908373ffffffffffffffffffffffffffffffffffffffff16021790555050565b806000806101000a81548173ffffffffffffffffffffffffffffffffffffffff021916908373ffffffffffffffffffffffffffffffffffffffff16021790555050565b600260009054906101000a900473ffffffffffffffffffffffffffffffffffffffff1681565b836000806101000a81548173ffffffffffffffffffffffffffffffffffffffff021916908373ffffffffffffffffffffffffffffffffffffffff16021790555082600160006101000a81548173ffffffffffffffffffffffffffffffffffffffff021916908373ffffffffffffffffffffffffffffffffffffffff16021790555081600260006101000a81548173ffffffffffffffffffffffffffffffffffffffff021916908373ffffffffffffffffffffffffffffffffffffffff16021790555080600360006101000a81548173ffffffffffffffffffffffffffffffffffffffff021916908373ffffffffffffffffffffffffffffffffffffffff16021790555050505050565b600080424460405160200161059f929190610d1c565b6040516020818303038152906040528051906020012060001c9050600b816105c79190610d77565b60ff1691505090565b6000600360009054906101000a900473ffffffffffffffffffffffffffffffffffffffff1673ffffffffffffffffffffffffffffffffffffffff16635e9bc536600260009054906101000a900473ffffffffffffffffffffffffffffffffffffffff164660008054906101000a900473ffffffffffffffffffffffffffffffffffffffff1686876040518663ffffffff1660e01b8152600401610677959493929190610da8565b602060405180830381865afa158015610694573d6000803e3d6000fd5b505050506040513d601f19601f820116820180604052508101906106b89190610e10565b90506000600160009054906101000a900473ffffffffffffffffffffffffffffffffffffffff1673ffffffffffffffffffffffffffffffffffffffff1663d9d61655836040518263ffffffff1660e01b81526004016107179190610bde565b600060405180830381865afa158015610734573d6000803e3d6000fd5b505050506040513d6000823e3d601f19601f8201168201806040525081019061075d9190610fab565b905060008060009054906101000a900473ffffffffffffffffffffffffffffffffffffffff1673ffffffffffffffffffffffffffffffffffffffff16636352211e866040518263ffffffff1660e01b81526004016107bb9190610ff4565b602060405180830381865afa1580156107d8573d6000803e3d6000fd5b505050506040513d601f19601f820116820180604052508101906107fc9190610e10565b905060005b8251811015610906578373ffffffffffffffffffffffffffffffffffffffff166374420f4c600160009054906101000a900473ffffffffffffffffffffffffffffffffffffffff16600087868887815181106108605761085f61100f565b5b602002602001015160405160200161087a93929190611103565b60405160208183030381529060405260006040518563ffffffff1660e01b81526004016108aa9493929190611205565b6000604051808303816000875af11580156108c9573d6000803e3d6000fd5b505050506040513d6000823e3d601f19601f820116820180604052508101906108f291906112f7565b5080806108fe90611340565b915050610801565b5060008054906101000a900473ffffffffffffffffffffffffffffffffffffffff1673ffffffffffffffffffffffffffffffffffffffff166342966c68856040518263ffffffff1660e01b81526004016109609190610ff4565b600060405180830381600087803b15801561097a57600080fd5b505af115801561098e573d6000803e3d6000fd5b505050508484867f3f810584fd2e3a93d42c480fbc845c9d1841dca219fef2d58be3077c90a001f560405160405180910390a45050505050565b6000604051905090565b600080fd5b600080fd5b600073ffffffffffffffffffffffffffffffffffffffff82169050919050565b6000610a07826109dc565b9050919050565b610a17816109fc565b8114610a2257600080fd5b50565b600081359050610a3481610a0e565b92915050565b600060208284031215610a5057610a4f6109d2565b5b6000610a5e84828501610a25565b91505092915050565b6000819050919050565b6000610a8c610a87610a82846109dc565b610a67565b6109dc565b9050919050565b6000610a9e82610a71565b9050919050565b6000610ab082610a93565b9050919050565b610ac081610aa5565b82525050565b6000602082019050610adb6000830184610ab7565b92915050565b6000610aec82610a93565b9050919050565b610afc81610ae1565b82525050565b6000602082019050610b176000830184610af3565b92915050565b6000819050919050565b610b3081610b1d565b8114610b3b57600080fd5b50565b600081359050610b4d81610b27565b92915050565b60008060408385031215610b6a57610b696109d2565b5b6000610b7885828601610b3e565b9250506020610b8985828601610b3e565b9150509250929050565b6000610b9e82610a93565b9050919050565b610bae81610b93565b82525050565b6000602082019050610bc96000830184610ba5565b92915050565b610bd8816109fc565b82525050565b6000602082019050610bf36000830184610bcf565b92915050565b60008060008060808587031215610c1357610c126109d2565b5b6000610c2187828801610a25565b9450506020610c3287828801610a25565b9350506040610c4387828801610a25565b9250506060610c5487828801610a25565b91505092959194509250565b7f4e487b7100000000000000000000000000000000000000000000000000000000600052601160045260246000fd5b6000610c9a82610b1d565b9150610ca583610b1d565b9250828203905081811115610cbd57610cbc610c60565b5b92915050565b610ccc81610b1d565b82525050565b6000604082019050610ce76000830185610cc3565b610cf46020830184610cc3565b9392505050565b6000819050919050565b610d16610d1182610b1d565b610cfb565b82525050565b6000610d288285610d05565b602082019150610d388284610d05565b6020820191508190509392505050565b7f4e487b7100000000000000000000000000000000000000000000000000000000600052601260045260246000fd5b6000610d8282610b1d565b9150610d8d83610b1d565b925082610d9d57610d9c610d48565b5b828206905092915050565b600060a082019050610dbd6000830188610bcf565b610dca6020830187610cc3565b610dd76040830186610bcf565b610de46060830185610cc3565b610df16080830184610cc3565b9695505050505050565b600081519050610e0a81610a0e565b92915050565b600060208284031215610e2657610e256109d2565b5b6000610e3484828501610dfb565b91505092915050565b600080fd5b6000601f19601f8301169050919050565b7f4e487b7100000000000000000000000000000000000000000000000000000000600052604160045260246000fd5b610e8b82610e42565b810181811067ffffffffffffffff82111715610eaa57610ea9610e53565b5b80604052505050565b6000610ebd6109c8565b9050610ec98282610e82565b919050565b600067ffffffffffffffff821115610ee957610ee8610e53565b5b602082029050602081019050919050565b600080fd5b600081519050610f0e81610b27565b92915050565b6000610f27610f2284610ece565b610eb3565b90508083825260208201905060208402830185811115610f4a57610f49610efa565b5b835b81811015610f735780610f5f8882610eff565b845260208401935050602081019050610f4c565b5050509392505050565b600082601f830112610f9257610f91610e3d565b5b8151610fa2848260208601610f14565b91505092915050565b600060208284031215610fc157610fc06109d2565b5b600082015167ffffffffffffffff811115610fdf57610fde6109d7565b5b610feb84828501610f7d565b91505092915050565b60006020820190506110096000830184610cc3565b92915050565b7f4e487b7100000000000000000000000000000000000000000000000000000000600052603260045260246000fd5b600081905092915050565b7f736166655472616e7366657246726f6d28616464726573732c6164647265737360008201527f2c75696e74323536290000000000000000000000000000000000000000000000602082015250565b60006110a560298361103e565b91506110b082611049565b602982019050919050565b60008160601b9050919050565b60006110d3826110bb565b9050919050565b60006110e5826110c8565b9050919050565b6110fd6110f8826109fc565b6110da565b82525050565b600061110e82611098565b915061111a82866110ec565b60148201915061112a82856110ec565b60148201915061113a8284610d05565b602082019150819050949350505050565b6000819050919050565b600061117061116b6111668461114b565b610a67565b610b1d565b9050919050565b61118081611155565b82525050565b600081519050919050565b600082825260208201905092915050565b60005b838110156111c05780820151818401526020810190506111a5565b60008484015250505050565b60006111d782611186565b6111e18185611191565b93506111f18185602086016111a2565b6111fa81610e42565b840191505092915050565b600060808201905061121a6000830187610bcf565b6112276020830186611177565b818103604083015261123981856111cc565b90506112486060830184611177565b95945050505050565b600080fd5b600067ffffffffffffffff82111561127157611270610e53565b5b61127a82610e42565b9050602081019050919050565b600061129a61129584611256565b610eb3565b9050828152602081018484840111156112b6576112b5611251565b5b6112c18482856111a2565b509392505050565b600082601f8301126112de576112dd610e3d565b5b81516112ee848260208601611287565b91505092915050565b60006020828403121561130d5761130c6109d2565b5b600082015167ffffffffffffffff81111561132b5761132a6109d7565b5b611337848285016112c9565b91505092915050565b600061134b82610b1d565b91507fffffffffffffffffffffffffffffffffffffffffffffffffffffffffffffffff820361137d5761137c610c60565b5b60018201905091905056fea26469706673582212202345d7297faaeb528777bb0d7269771a0b9d3056416c3ca4e87f14dc7998581164736f6c63430008120033",
  "devdoc": {
    "kind": "dev",
    "methods": {},
    "version": 1
  },
  "userdoc": {
    "kind": "user",
    "methods": {},
    "version": 1
  },
  "storageLayout": {
    "storage": [
      {
        "astId": 2714,
        "contract": "contracts/Battle.sol:Battle",
        "label": "avatarContract",
        "offset": 0,
        "slot": "0",
        "type": "t_contract(ERC721Burnable)1090"
      },
      {
        "astId": 2717,
        "contract": "contracts/Battle.sol:Battle",
        "label": "equipmentContract",
        "offset": 0,
        "slot": "1",
        "type": "t_contract(IBGEquipment)3032"
      },
      {
        "astId": 2719,
        "contract": "contracts/Battle.sol:Battle",
        "label": "accountContract",
        "offset": 0,
        "slot": "2",
        "type": "t_address"
      },
      {
        "astId": 2722,
        "contract": "contracts/Battle.sol:Battle",
        "label": "registryContract",
        "offset": 0,
        "slot": "3",
        "type": "t_contract(IERC6551Registry)3102"
      }
    ],
    "types": {
      "t_address": {
        "encoding": "inplace",
        "label": "address",
        "numberOfBytes": "20"
      },
      "t_contract(ERC721Burnable)1090": {
        "encoding": "inplace",
        "label": "contract ERC721Burnable",
        "numberOfBytes": "20"
      },
      "t_contract(IBGEquipment)3032": {
        "encoding": "inplace",
        "label": "contract IBGEquipment",
        "numberOfBytes": "20"
      },
      "t_contract(IERC6551Registry)3102": {
        "encoding": "inplace",
        "label": "contract IERC6551Registry",
        "numberOfBytes": "20"
      }
    }
  }
}