{
  "address": "0x1563A583C26095f0029E9d041f24d2Af2A4abEdE",
  "abi": [
    {
      "anonymous": false,
      "inputs": [
        {
          "indexed": true,
          "internalType": "uint256",
          "name": "tokenId1",
          "type": "uint256"
        },
        {
          "indexed": true,
          "internalType": "uint256",
          "name": "tokenId2",
          "type": "uint256"
        },
        {
          "indexed": true,
          "internalType": "uint256",
          "name": "winner",
          "type": "uint256"
        }
      ],
      "name": "BattleCommenced",
      "type": "event"
    },
    {
      "inputs": [],
      "name": "avatarContract",
      "outputs": [
        {
          "internalType": "contract IBGAvatars",
          "name": "",
          "type": "address"
        }
      ],
      "stateMutability": "view",
      "type": "function"
    },
    {
      "inputs": [
        {
          "internalType": "uint256",
          "name": "tokenId1",
          "type": "uint256"
        },
        {
          "internalType": "uint256",
          "name": "tokenId2",
          "type": "uint256"
        }
      ],
      "name": "battle",
      "outputs": [],
      "stateMutability": "nonpayable",
      "type": "function"
    },
    {
      "inputs": [
        {
          "internalType": "address",
          "name": "_avatarContract",
          "type": "address"
        }
      ],
      "name": "initialize",
      "outputs": [],
      "stateMutability": "nonpayable",
      "type": "function"
    }
  ],
  "transactionHash": "0xa30e7e3785eefacd3a4a6ef67d84466ed190cebdd0e61b8a99b9ad54125635e1",
  "args": [],
  "numDeployments": 1,
  "solcInputHash": "2db2f00a639aa9f2214b753896e4b713",
  "bytecode": "0x608060405234801561001057600080fd5b506105e3806100206000396000f3fe608060405234801561001057600080fd5b50600436106100415760003560e01c80632a0c52211461004657806345f0791d14610062578063c4d66de814610080575b600080fd5b610060600480360381019061005b9190610380565b61009c565b005b61006a6102de565b604051610077919061043f565b60405180910390f35b61009a60048036038101906100959190610498565b610302565b005b600060644244856040516020016100b5939291906104e6565b6040516020818303038152906040528051906020012060001c6100d89190610552565b9050600060644244856040516020016100f3939291906104e6565b6040516020818303038152906040528051906020012060001c6101169190610552565b9050808211156101df5760008054906101000a900473ffffffffffffffffffffffffffffffffffffffff1673ffffffffffffffffffffffffffffffffffffffff166317ae6aff846040518263ffffffff1660e01b81526004016101799190610592565b600060405180830381600087803b15801561019357600080fd5b505af11580156101a7573d6000803e3d6000fd5b505050508383857f33515132930854e3a6ed49dc7eb3159be8d1c21905ebcbc6ab9ae972e728885960405160405180910390a46102d8565b808210156102a65760008054906101000a900473ffffffffffffffffffffffffffffffffffffffff1673ffffffffffffffffffffffffffffffffffffffff166317ae6aff856040518263ffffffff1660e01b81526004016102409190610592565b600060405180830381600087803b15801561025a57600080fd5b505af115801561026e573d6000803e3d6000fd5b505050508283857f33515132930854e3a6ed49dc7eb3159be8d1c21905ebcbc6ab9ae972e728885960405160405180910390a46102d7565b600083857f33515132930854e3a6ed49dc7eb3159be8d1c21905ebcbc6ab9ae972e728885960405160405180910390a45b5b50505050565b60008054906101000a900473ffffffffffffffffffffffffffffffffffffffff1681565b806000806101000a81548173ffffffffffffffffffffffffffffffffffffffff021916908373ffffffffffffffffffffffffffffffffffffffff16021790555050565b600080fd5b6000819050919050565b61035d8161034a565b811461036857600080fd5b50565b60008135905061037a81610354565b92915050565b6000806040838503121561039757610396610345565b5b60006103a58582860161036b565b92505060206103b68582860161036b565b9150509250929050565b600073ffffffffffffffffffffffffffffffffffffffff82169050919050565b6000819050919050565b60006104056104006103fb846103c0565b6103e0565b6103c0565b9050919050565b6000610417826103ea565b9050919050565b60006104298261040c565b9050919050565b6104398161041e565b82525050565b60006020820190506104546000830184610430565b92915050565b6000610465826103c0565b9050919050565b6104758161045a565b811461048057600080fd5b50565b6000813590506104928161046c565b92915050565b6000602082840312156104ae576104ad610345565b5b60006104bc84828501610483565b91505092915050565b6000819050919050565b6104e06104db8261034a565b6104c5565b82525050565b60006104f282866104cf565b60208201915061050282856104cf565b60208201915061051282846104cf565b602082019150819050949350505050565b7f4e487b7100000000000000000000000000000000000000000000000000000000600052601260045260246000fd5b600061055d8261034a565b91506105688361034a565b92508261057857610577610523565b5b828206905092915050565b61058c8161034a565b82525050565b60006020820190506105a76000830184610583565b9291505056fea2646970667358221220251053daf6582318a3439658745ea7800b081ffcf98a88c8b6da3291c78d27b764736f6c63430008120033",
  "devdoc": {
    "kind": "dev",
    "methods": {},
    "version": 1
  },
  "userdoc": {
    "kind": "user",
    "methods": {},
    "version": 1
  },
  "storageLayout": {
    "storage": [
      {
        "astId": 4827,
        "contract": "contracts/Battle.sol:Battle",
        "label": "avatarContract",
        "offset": 0,
        "slot": "0",
        "type": "t_contract(IBGAvatars)4952"
      }
    ],
    "types": {
      "t_contract(IBGAvatars)4952": {
        "encoding": "inplace",
        "label": "contract IBGAvatars",
        "numberOfBytes": "20"
      }
    }
  }
}