{
  "address": "0xaE0BebBC58321c370C29766caeF1BE6012dC2b07",
  "abi": [
    {
      "inputs": [
        {
          "internalType": "address",
          "name": "_accountImplementation",
          "type": "address"
        },
        {
          "internalType": "address",
          "name": "_registry",
          "type": "address"
        }
      ],
      "stateMutability": "nonpayable",
      "type": "constructor"
    },
    {
      "anonymous": false,
      "inputs": [
        {
          "indexed": true,
          "internalType": "address",
          "name": "owner",
          "type": "address"
        },
        {
          "indexed": true,
          "internalType": "address",
          "name": "approved",
          "type": "address"
        },
        {
          "indexed": true,
          "internalType": "uint256",
          "name": "tokenId",
          "type": "uint256"
        }
      ],
      "name": "Approval",
      "type": "event"
    },
    {
      "anonymous": false,
      "inputs": [
        {
          "indexed": true,
          "internalType": "address",
          "name": "owner",
          "type": "address"
        },
        {
          "indexed": true,
          "internalType": "address",
          "name": "operator",
          "type": "address"
        },
        {
          "indexed": false,
          "internalType": "bool",
          "name": "approved",
          "type": "bool"
        }
      ],
      "name": "ApprovalForAll",
      "type": "event"
    },
    {
      "anonymous": false,
      "inputs": [
        {
          "indexed": true,
          "internalType": "address",
          "name": "owner",
          "type": "address"
        },
        {
          "indexed": true,
          "internalType": "uint256",
          "name": "tokenId",
          "type": "uint256"
        },
        {
          "indexed": true,
          "internalType": "address",
          "name": "account",
          "type": "address"
        },
        {
          "indexed": false,
          "internalType": "string",
          "name": "tokenURI",
          "type": "string"
        }
      ],
      "name": "AvatarCreated",
      "type": "event"
    },
    {
      "anonymous": false,
      "inputs": [
        {
          "indexed": false,
          "internalType": "uint256",
          "name": "_fromTokenId",
          "type": "uint256"
        },
        {
          "indexed": false,
          "internalType": "uint256",
          "name": "_toTokenId",
          "type": "uint256"
        }
      ],
      "name": "BatchMetadataUpdate",
      "type": "event"
    },
    {
      "anonymous": false,
      "inputs": [
        {
          "indexed": false,
          "internalType": "uint256",
          "name": "_tokenId",
          "type": "uint256"
        }
      ],
      "name": "MetadataUpdate",
      "type": "event"
    },
    {
      "anonymous": false,
      "inputs": [
        {
          "indexed": true,
          "internalType": "address",
          "name": "previousOwner",
          "type": "address"
        },
        {
          "indexed": true,
          "internalType": "address",
          "name": "newOwner",
          "type": "address"
        }
      ],
      "name": "OwnershipTransferred",
      "type": "event"
    },
    {
      "anonymous": false,
      "inputs": [
        {
          "indexed": true,
          "internalType": "address",
          "name": "from",
          "type": "address"
        },
        {
          "indexed": true,
          "internalType": "address",
          "name": "to",
          "type": "address"
        },
        {
          "indexed": true,
          "internalType": "uint256",
          "name": "tokenId",
          "type": "uint256"
        }
      ],
      "name": "Transfer",
      "type": "event"
    },
    {
      "inputs": [],
      "name": "accountImplementation",
      "outputs": [
        {
          "internalType": "address",
          "name": "",
          "type": "address"
        }
      ],
      "stateMutability": "view",
      "type": "function"
    },
    {
      "inputs": [
        {
          "internalType": "address",
          "name": "to",
          "type": "address"
        },
        {
          "internalType": "uint256",
          "name": "tokenId",
          "type": "uint256"
        }
      ],
      "name": "approve",
      "outputs": [],
      "stateMutability": "nonpayable",
      "type": "function"
    },
    {
      "inputs": [
        {
          "internalType": "address",
          "name": "owner",
          "type": "address"
        }
      ],
      "name": "balanceOf",
      "outputs": [
        {
          "internalType": "uint256",
          "name": "",
          "type": "uint256"
        }
      ],
      "stateMutability": "view",
      "type": "function"
    },
    {
      "inputs": [
        {
          "internalType": "uint256",
          "name": "tokenId",
          "type": "uint256"
        }
      ],
      "name": "battleBurn",
      "outputs": [],
      "stateMutability": "nonpayable",
      "type": "function"
    },
    {
      "inputs": [
        {
          "internalType": "uint256",
          "name": "tokenId",
          "type": "uint256"
        }
      ],
      "name": "burn",
      "outputs": [],
      "stateMutability": "nonpayable",
      "type": "function"
    },
    {
      "inputs": [
        {
          "internalType": "uint256",
          "name": "tokenId",
          "type": "uint256"
        }
      ],
      "name": "getApproved",
      "outputs": [
        {
          "internalType": "address",
          "name": "",
          "type": "address"
        }
      ],
      "stateMutability": "view",
      "type": "function"
    },
    {
      "inputs": [
        {
          "internalType": "address",
          "name": "owner",
          "type": "address"
        },
        {
          "internalType": "address",
          "name": "operator",
          "type": "address"
        }
      ],
      "name": "isApprovedForAll",
      "outputs": [
        {
          "internalType": "bool",
          "name": "",
          "type": "bool"
        }
      ],
      "stateMutability": "view",
      "type": "function"
    },
    {
      "inputs": [],
      "name": "name",
      "outputs": [
        {
          "internalType": "string",
          "name": "",
          "type": "string"
        }
      ],
      "stateMutability": "view",
      "type": "function"
    },
    {
      "inputs": [],
      "name": "owner",
      "outputs": [
        {
          "internalType": "address",
          "name": "",
          "type": "address"
        }
      ],
      "stateMutability": "view",
      "type": "function"
    },
    {
      "inputs": [
        {
          "internalType": "uint256",
          "name": "tokenId",
          "type": "uint256"
        }
      ],
      "name": "ownerOf",
      "outputs": [
        {
          "internalType": "address",
          "name": "",
          "type": "address"
        }
      ],
      "stateMutability": "view",
      "type": "function"
    },
    {
      "inputs": [],
      "name": "registry",
      "outputs": [
        {
          "internalType": "contract IERC6551Registry",
          "name": "",
          "type": "address"
        }
      ],
      "stateMutability": "view",
      "type": "function"
    },
    {
      "inputs": [],
      "name": "renounceOwnership",
      "outputs": [],
      "stateMutability": "nonpayable",
      "type": "function"
    },
    {
      "inputs": [
        {
          "internalType": "address",
          "name": "to",
          "type": "address"
        },
        {
          "internalType": "string",
          "name": "uri",
          "type": "string"
        }
      ],
      "name": "safeMint",
      "outputs": [],
      "stateMutability": "nonpayable",
      "type": "function"
    },
    {
      "inputs": [
        {
          "internalType": "address",
          "name": "from",
          "type": "address"
        },
        {
          "internalType": "address",
          "name": "to",
          "type": "address"
        },
        {
          "internalType": "uint256",
          "name": "tokenId",
          "type": "uint256"
        }
      ],
      "name": "safeTransferFrom",
      "outputs": [],
      "stateMutability": "nonpayable",
      "type": "function"
    },
    {
      "inputs": [
        {
          "internalType": "address",
          "name": "from",
          "type": "address"
        },
        {
          "internalType": "address",
          "name": "to",
          "type": "address"
        },
        {
          "internalType": "uint256",
          "name": "tokenId",
          "type": "uint256"
        },
        {
          "internalType": "bytes",
          "name": "data",
          "type": "bytes"
        }
      ],
      "name": "safeTransferFrom",
      "outputs": [],
      "stateMutability": "nonpayable",
      "type": "function"
    },
    {
      "inputs": [
        {
          "internalType": "address",
          "name": "operator",
          "type": "address"
        },
        {
          "internalType": "bool",
          "name": "approved",
          "type": "bool"
        }
      ],
      "name": "setApprovalForAll",
      "outputs": [],
      "stateMutability": "nonpayable",
      "type": "function"
    },
    {
      "inputs": [
        {
          "internalType": "bytes4",
          "name": "interfaceId",
          "type": "bytes4"
        }
      ],
      "name": "supportsInterface",
      "outputs": [
        {
          "internalType": "bool",
          "name": "",
          "type": "bool"
        }
      ],
      "stateMutability": "view",
      "type": "function"
    },
    {
      "inputs": [],
      "name": "symbol",
      "outputs": [
        {
          "internalType": "string",
          "name": "",
          "type": "string"
        }
      ],
      "stateMutability": "view",
      "type": "function"
    },
    {
      "inputs": [
        {
          "internalType": "uint256",
          "name": "index",
          "type": "uint256"
        }
      ],
      "name": "tokenByIndex",
      "outputs": [
        {
          "internalType": "uint256",
          "name": "",
          "type": "uint256"
        }
      ],
      "stateMutability": "view",
      "type": "function"
    },
    {
      "inputs": [
        {
          "internalType": "address",
          "name": "owner",
          "type": "address"
        },
        {
          "internalType": "uint256",
          "name": "index",
          "type": "uint256"
        }
      ],
      "name": "tokenOfOwnerByIndex",
      "outputs": [
        {
          "internalType": "uint256",
          "name": "",
          "type": "uint256"
        }
      ],
      "stateMutability": "view",
      "type": "function"
    },
    {
      "inputs": [
        {
          "internalType": "uint256",
          "name": "tokenId",
          "type": "uint256"
        }
      ],
      "name": "tokenURI",
      "outputs": [
        {
          "internalType": "string",
          "name": "",
          "type": "string"
        }
      ],
      "stateMutability": "view",
      "type": "function"
    },
    {
      "inputs": [],
      "name": "totalSupply",
      "outputs": [
        {
          "internalType": "uint256",
          "name": "",
          "type": "uint256"
        }
      ],
      "stateMutability": "view",
      "type": "function"
    },
    {
      "inputs": [
        {
          "internalType": "address",
          "name": "from",
          "type": "address"
        },
        {
          "internalType": "address",
          "name": "to",
          "type": "address"
        },
        {
          "internalType": "uint256",
          "name": "tokenId",
          "type": "uint256"
        }
      ],
      "name": "transferFrom",
      "outputs": [],
      "stateMutability": "nonpayable",
      "type": "function"
    },
    {
      "inputs": [
        {
          "internalType": "address",
          "name": "newOwner",
          "type": "address"
        }
      ],
      "name": "transferOwnership",
      "outputs": [],
      "stateMutability": "nonpayable",
      "type": "function"
    }
  ],
  "transactionHash": "0x9815d719728a9989fbecba842dc2ad7de28737c83808e9ca7525df892fa65c7d",
  "args": [
    "0x840c96B92e5C8a68706E34C13D3fc5c725a25914",
    "0x02101dfB77FDE026414827Fdc604ddAF224F0921"
  ],
  "numDeployments": 1,
  "solcInputHash": "2db2f00a639aa9f2214b753896e4b713",
  "bytecode": "0x60806040523480156200001157600080fd5b5060405162004480380380620044808339818101604052810190620000379190620002d8565b6040518060400160405280600981526020017f42474176617461727300000000000000000000000000000000000000000000008152506040518060400160405280600381526020017f42474100000000000000000000000000000000000000000000000000000000008152508160009081620000b4919062000599565b508060019081620000c6919062000599565b505050620000e9620000dd6200018a60201b60201c565b6200019260201b60201c565b62000100600c6200025860201b62000e091760201c565b81600d60006101000a81548173ffffffffffffffffffffffffffffffffffffffff021916908373ffffffffffffffffffffffffffffffffffffffff16021790555080600e60006101000a81548173ffffffffffffffffffffffffffffffffffffffff021916908373ffffffffffffffffffffffffffffffffffffffff160217905550505062000680565b600033905090565b6000600b60009054906101000a900473ffffffffffffffffffffffffffffffffffffffff16905081600b60006101000a81548173ffffffffffffffffffffffffffffffffffffffff021916908373ffffffffffffffffffffffffffffffffffffffff1602179055508173ffffffffffffffffffffffffffffffffffffffff168173ffffffffffffffffffffffffffffffffffffffff167f8be0079c531659141344cd1fd0a4f28419497f9722a3daafe3b4186f6b6457e060405160405180910390a35050565b6001816000016000828254019250508190555050565b600080fd5b600073ffffffffffffffffffffffffffffffffffffffff82169050919050565b6000620002a08262000273565b9050919050565b620002b28162000293565b8114620002be57600080fd5b50565b600081519050620002d281620002a7565b92915050565b60008060408385031215620002f257620002f16200026e565b5b60006200030285828601620002c1565b92505060206200031585828601620002c1565b9150509250929050565b600081519050919050565b7f4e487b7100000000000000000000000000000000000000000000000000000000600052604160045260246000fd5b7f4e487b7100000000000000000000000000000000000000000000000000000000600052602260045260246000fd5b60006002820490506001821680620003a157607f821691505b602082108103620003b757620003b662000359565b5b50919050565b60008190508160005260206000209050919050565b60006020601f8301049050919050565b600082821b905092915050565b600060088302620004217fffffffffffffffffffffffffffffffffffffffffffffffffffffffffffffffff82620003e2565b6200042d8683620003e2565b95508019841693508086168417925050509392505050565b6000819050919050565b6000819050919050565b60006200047a620004746200046e8462000445565b6200044f565b62000445565b9050919050565b6000819050919050565b620004968362000459565b620004ae620004a58262000481565b848454620003ef565b825550505050565b600090565b620004c5620004b6565b620004d28184846200048b565b505050565b5b81811015620004fa57620004ee600082620004bb565b600181019050620004d8565b5050565b601f82111562000549576200051381620003bd565b6200051e84620003d2565b810160208510156200052e578190505b620005466200053d85620003d2565b830182620004d7565b50505b505050565b600082821c905092915050565b60006200056e600019846008026200054e565b1980831691505092915050565b60006200058983836200055b565b9150826002028217905092915050565b620005a4826200031f565b67ffffffffffffffff811115620005c057620005bf6200032a565b5b620005cc825462000388565b620005d9828285620004fe565b600060209050601f831160018114620006115760008415620005fc578287015190505b6200060885826200057b565b86555062000678565b601f1984166200062186620003bd565b60005b828110156200064b5784890151825560018201915060208501945060208101905062000624565b868310156200066b578489015162000667601f8916826200055b565b8355505b6001600288020188555050505b505050505050565b613df080620006906000396000f3fe608060405234801561001057600080fd5b50600436106101585760003560e01c80636352211e116100c3578063a22cb4651161007c578063a22cb465146103c7578063b88d4fde146103e3578063c87b56dd146103ff578063d204c45e1461042f578063e985e9c51461044b578063f2fde38b1461047b57610158565b80636352211e1461030357806370a0823114610333578063715018a6146103635780637b1039991461036d5780638da5cb5b1461038b57806395d89b41146103a957610158565b806318160ddd1161011557806318160ddd1461023157806323b872dd1461024f5780632f745c591461026b57806342842e0e1461029b57806342966c68146102b75780634f6ccce7146102d357610158565b806301ffc9a71461015d57806306fdde031461018d578063081812fc146101ab578063095ea7b3146101db57806311464fbe146101f757806317ae6aff14610215575b600080fd5b6101776004803603810190610172919061282c565b610497565b6040516101849190612874565b60405180910390f35b6101956104a9565b6040516101a2919061291f565b60405180910390f35b6101c560048036038101906101c09190612977565b61053b565b6040516101d291906129e5565b60405180910390f35b6101f560048036038101906101f09190612a2c565b610581565b005b6101ff610698565b60405161020c91906129e5565b60405180910390f35b61022f600480360381019061022a9190612977565b6106be565b005b6102396106ca565b6040516102469190612a7b565b60405180910390f35b61026960048036038101906102649190612a96565b6106d7565b005b61028560048036038101906102809190612a2c565b610737565b6040516102929190612a7b565b60405180910390f35b6102b560048036038101906102b09190612a96565b6107dc565b005b6102d160048036038101906102cc9190612977565b6107fc565b005b6102ed60048036038101906102e89190612977565b610858565b6040516102fa9190612a7b565b60405180910390f35b61031d60048036038101906103189190612977565b6108c9565b60405161032a91906129e5565b60405180910390f35b61034d60048036038101906103489190612ae9565b61094f565b60405161035a9190612a7b565b60405180910390f35b61036b610a06565b005b610375610a1a565b6040516103829190612b75565b60405180910390f35b610393610a40565b6040516103a091906129e5565b60405180910390f35b6103b1610a6a565b6040516103be919061291f565b60405180910390f35b6103e160048036038101906103dc9190612bbc565b610afc565b005b6103fd60048036038101906103f89190612d31565b610b12565b005b61041960048036038101906104149190612977565b610b74565b604051610426919061291f565b60405180910390f35b61044960048036038101906104449190612e55565b610b86565b005b61046560048036038101906104609190612eb1565b610cf2565b6040516104729190612874565b60405180910390f35b61049560048036038101906104909190612ae9565b610d86565b005b60006104a282610e1f565b9050919050565b6060600080546104b890612f20565b80601f01602080910402602001604051908101604052809291908181526020018280546104e490612f20565b80156105315780601f1061050657610100808354040283529160200191610531565b820191906000526020600020905b81548152906001019060200180831161051457829003601f168201915b5050505050905090565b600061054682610e80565b6004600083815260200190815260200160002060009054906101000a900473ffffffffffffffffffffffffffffffffffffffff169050919050565b600061058c826108c9565b90508073ffffffffffffffffffffffffffffffffffffffff168373ffffffffffffffffffffffffffffffffffffffff16036105fc576040517f08c379a00000000000000000000000000000000000000000000000000000000081526004016105f390612fc3565b60405180910390fd5b8073ffffffffffffffffffffffffffffffffffffffff1661061b610ecb565b73ffffffffffffffffffffffffffffffffffffffff16148061064a575061064981610644610ecb565b610cf2565b5b610689576040517f08c379a000000000000000000000000000000000000000000000000000000000815260040161068090613055565b60405180910390fd5b6106938383610ed3565b505050565b600d60009054906101000a900473ffffffffffffffffffffffffffffffffffffffff1681565b6106c781610f8c565b50565b6000600880549050905090565b6106e86106e2610ecb565b82610f98565b610727576040517f08c379a000000000000000000000000000000000000000000000000000000000815260040161071e906130e7565b60405180910390fd5b61073283838361102d565b505050565b60006107428361094f565b8210610783576040517f08c379a000000000000000000000000000000000000000000000000000000000815260040161077a90613179565b60405180910390fd5b600660008473ffffffffffffffffffffffffffffffffffffffff1673ffffffffffffffffffffffffffffffffffffffff168152602001908152602001600020600083815260200190815260200160002054905092915050565b6107f783838360405180602001604052806000815250610b12565b505050565b61080d610807610ecb565b82610f98565b61084c576040517f08c379a0000000000000000000000000000000000000000000000000000000008152600401610843906130e7565b60405180910390fd5b61085581610f8c565b50565b60006108626106ca565b82106108a3576040517f08c379a000000000000000000000000000000000000000000000000000000000815260040161089a9061320b565b60405180910390fd5b600882815481106108b7576108b661322b565b5b90600052602060002001549050919050565b6000806108d583611326565b9050600073ffffffffffffffffffffffffffffffffffffffff168173ffffffffffffffffffffffffffffffffffffffff1603610946576040517f08c379a000000000000000000000000000000000000000000000000000000000815260040161093d906132a6565b60405180910390fd5b80915050919050565b60008073ffffffffffffffffffffffffffffffffffffffff168273ffffffffffffffffffffffffffffffffffffffff16036109bf576040517f08c379a00000000000000000000000000000000000000000000000000000000081526004016109b690613338565b60405180910390fd5b600360008373ffffffffffffffffffffffffffffffffffffffff1673ffffffffffffffffffffffffffffffffffffffff168152602001908152602001600020549050919050565b610a0e611363565b610a1860006113e1565b565b600e60009054906101000a900473ffffffffffffffffffffffffffffffffffffffff1681565b6000600b60009054906101000a900473ffffffffffffffffffffffffffffffffffffffff16905090565b606060018054610a7990612f20565b80601f0160208091040260200160405190810160405280929190818152602001828054610aa590612f20565b8015610af25780601f10610ac757610100808354040283529160200191610af2565b820191906000526020600020905b815481529060010190602001808311610ad557829003601f168201915b5050505050905090565b610b0e610b07610ecb565b83836114a7565b5050565b610b23610b1d610ecb565b83610f98565b610b62576040517f08c379a0000000000000000000000000000000000000000000000000000000008152600401610b59906130e7565b60405180910390fd5b610b6e84848484611613565b50505050565b6060610b7f8261166f565b9050919050565b6000610b92600c611781565b9050610b9e600c610e09565b610ba8838261178f565b610bb281836117ad565b6000600e60009054906101000a900473ffffffffffffffffffffffffffffffffffffffff1673ffffffffffffffffffffffffffffffffffffffff1663da7323b3600d60009054906101000a900473ffffffffffffffffffffffffffffffffffffffff16463086876040518663ffffffff1660e01b8152600401610c3995949392919061338f565b6020604051808303816000875af1158015610c58573d6000803e3d6000fd5b505050506040513d601f19601f82011682018060405250810190610c7c919061340a565b90508073ffffffffffffffffffffffffffffffffffffffff16828573ffffffffffffffffffffffffffffffffffffffff167f3f372cd7c49440e55fa69ce53b14ba6d4e80b78ea44ae7031a387dbddd7194a4610cd786610b74565b604051610ce4919061291f565b60405180910390a450505050565b6000600560008473ffffffffffffffffffffffffffffffffffffffff1673ffffffffffffffffffffffffffffffffffffffff16815260200190815260200160002060008373ffffffffffffffffffffffffffffffffffffffff1673ffffffffffffffffffffffffffffffffffffffff16815260200190815260200160002060009054906101000a900460ff16905092915050565b610d8e611363565b600073ffffffffffffffffffffffffffffffffffffffff168173ffffffffffffffffffffffffffffffffffffffff1603610dfd576040517f08c379a0000000000000000000000000000000000000000000000000000000008152600401610df4906134a9565b60405180910390fd5b610e06816113e1565b50565b6001816000016000828254019250508190555050565b6000634906490660e01b7bffffffffffffffffffffffffffffffffffffffffffffffffffffffff1916827bffffffffffffffffffffffffffffffffffffffffffffffffffffffff19161480610e795750610e7882611851565b5b9050919050565b610e89816118cb565b610ec8576040517f08c379a0000000000000000000000000000000000000000000000000000000008152600401610ebf906132a6565b60405180910390fd5b50565b600033905090565b816004600083815260200190815260200160002060006101000a81548173ffffffffffffffffffffffffffffffffffffffff021916908373ffffffffffffffffffffffffffffffffffffffff160217905550808273ffffffffffffffffffffffffffffffffffffffff16610f46836108c9565b73ffffffffffffffffffffffffffffffffffffffff167f8c5be1e5ebec7d5bd14f71427d1e84f3dd0314c0f7b2291e5b200ac8c7c3b92560405160405180910390a45050565b610f958161190c565b50565b600080610fa4836108c9565b90508073ffffffffffffffffffffffffffffffffffffffff168473ffffffffffffffffffffffffffffffffffffffff161480610fe65750610fe58185610cf2565b5b8061102457508373ffffffffffffffffffffffffffffffffffffffff1661100c8461053b565b73ffffffffffffffffffffffffffffffffffffffff16145b91505092915050565b8273ffffffffffffffffffffffffffffffffffffffff1661104d826108c9565b73ffffffffffffffffffffffffffffffffffffffff16146110a3576040517f08c379a000000000000000000000000000000000000000000000000000000000815260040161109a9061353b565b60405180910390fd5b600073ffffffffffffffffffffffffffffffffffffffff168273ffffffffffffffffffffffffffffffffffffffff1603611112576040517f08c379a0000000000000000000000000000000000000000000000000000000008152600401611109906135cd565b60405180910390fd5b61111f838383600161195f565b8273ffffffffffffffffffffffffffffffffffffffff1661113f826108c9565b73ffffffffffffffffffffffffffffffffffffffff1614611195576040517f08c379a000000000000000000000000000000000000000000000000000000000815260040161118c9061353b565b60405180910390fd5b6004600082815260200190815260200160002060006101000a81549073ffffffffffffffffffffffffffffffffffffffff02191690556001600360008573ffffffffffffffffffffffffffffffffffffffff1673ffffffffffffffffffffffffffffffffffffffff168152602001908152602001600020600082825403925050819055506001600360008473ffffffffffffffffffffffffffffffffffffffff1673ffffffffffffffffffffffffffffffffffffffff16815260200190815260200160002060008282540192505081905550816002600083815260200190815260200160002060006101000a81548173ffffffffffffffffffffffffffffffffffffffff021916908373ffffffffffffffffffffffffffffffffffffffff160217905550808273ffffffffffffffffffffffffffffffffffffffff168473ffffffffffffffffffffffffffffffffffffffff167fddf252ad1be2c89b69c2b068fc378daa952ba7f163c4a11628f55a4df523b3ef60405160405180910390a46113218383836001611971565b505050565b60006002600083815260200190815260200160002060009054906101000a900473ffffffffffffffffffffffffffffffffffffffff169050919050565b61136b610ecb565b73ffffffffffffffffffffffffffffffffffffffff16611389610a40565b73ffffffffffffffffffffffffffffffffffffffff16146113df576040517f08c379a00000000000000000000000000000000000000000000000000000000081526004016113d690613639565b60405180910390fd5b565b6000600b60009054906101000a900473ffffffffffffffffffffffffffffffffffffffff16905081600b60006101000a81548173ffffffffffffffffffffffffffffffffffffffff021916908373ffffffffffffffffffffffffffffffffffffffff1602179055508173ffffffffffffffffffffffffffffffffffffffff168173ffffffffffffffffffffffffffffffffffffffff167f8be0079c531659141344cd1fd0a4f28419497f9722a3daafe3b4186f6b6457e060405160405180910390a35050565b8173ffffffffffffffffffffffffffffffffffffffff168373ffffffffffffffffffffffffffffffffffffffff1603611515576040517f08c379a000000000000000000000000000000000000000000000000000000000815260040161150c906136a5565b60405180910390fd5b80600560008573ffffffffffffffffffffffffffffffffffffffff1673ffffffffffffffffffffffffffffffffffffffff16815260200190815260200160002060008473ffffffffffffffffffffffffffffffffffffffff1673ffffffffffffffffffffffffffffffffffffffff16815260200190815260200160002060006101000a81548160ff0219169083151502179055508173ffffffffffffffffffffffffffffffffffffffff168373ffffffffffffffffffffffffffffffffffffffff167f17307eab39ab6107e8899845ad3d59bd9653f200f220920489ca2b5937696c31836040516116069190612874565b60405180910390a3505050565b61161e84848461102d565b61162a84848484611977565b611669576040517f08c379a000000000000000000000000000000000000000000000000000000000815260040161166090613737565b60405180910390fd5b50505050565b606061167a82610e80565b6000600a6000848152602001908152602001600020805461169a90612f20565b80601f01602080910402602001604051908101604052809291908181526020018280546116c690612f20565b80156117135780601f106116e857610100808354040283529160200191611713565b820191906000526020600020905b8154815290600101906020018083116116f657829003601f168201915b505050505090506000611724611afe565b9050600081510361173957819250505061177c565b60008251111561176e578082604051602001611756929190613793565b6040516020818303038152906040529250505061177c565b61177784611b3b565b925050505b919050565b600081600001549050919050565b6117a9828260405180602001604052806000815250611ba3565b5050565b6117b6826118cb565b6117f5576040517f08c379a00000000000000000000000000000000000000000000000000000000081526004016117ec90613829565b60405180910390fd5b80600a6000848152602001908152602001600020908161181591906139eb565b507ff8e1a15aba9398e019f0b49df1a4fde98ee17ae345cb5f6b5e2c27f5033e8ce7826040516118459190612a7b565b60405180910390a15050565b60007f780e9d63000000000000000000000000000000000000000000000000000000007bffffffffffffffffffffffffffffffffffffffffffffffffffffffff1916827bffffffffffffffffffffffffffffffffffffffffffffffffffffffff191614806118c457506118c382611bfe565b5b9050919050565b60008073ffffffffffffffffffffffffffffffffffffffff166118ed83611326565b73ffffffffffffffffffffffffffffffffffffffff1614159050919050565b61191581611ce0565b6000600a6000838152602001908152602001600020805461193590612f20565b90501461195c57600a6000828152602001908152602001600020600061195b9190612763565b5b50565b61196b84848484611e2e565b50505050565b50505050565b60006119988473ffffffffffffffffffffffffffffffffffffffff16611f8c565b15611af1578373ffffffffffffffffffffffffffffffffffffffff1663150b7a026119c1610ecb565b8786866040518563ffffffff1660e01b81526004016119e39493929190613b01565b6020604051808303816000875af1925050508015611a1f57506040513d601f19601f82011682018060405250810190611a1c9190613b62565b60015b611aa1573d8060008114611a4f576040519150601f19603f3d011682016040523d82523d6000602084013e611a54565b606091505b506000815103611a99576040517f08c379a0000000000000000000000000000000000000000000000000000000008152600401611a9090613737565b60405180910390fd5b805181602001fd5b63150b7a0260e01b7bffffffffffffffffffffffffffffffffffffffffffffffffffffffff1916817bffffffffffffffffffffffffffffffffffffffffffffffffffffffff191614915050611af6565b600190505b949350505050565b60606040518060400160405280600781526020017f697066733a2f2f00000000000000000000000000000000000000000000000000815250905090565b6060611b4682610e80565b6000611b50611afe565b90506000815111611b705760405180602001604052806000815250611b9b565b80611b7a84611faf565b604051602001611b8b929190613793565b6040516020818303038152906040525b915050919050565b611bad838361207d565b611bba6000848484611977565b611bf9576040517f08c379a0000000000000000000000000000000000000000000000000000000008152600401611bf090613737565b60405180910390fd5b505050565b60007f80ac58cd000000000000000000000000000000000000000000000000000000007bffffffffffffffffffffffffffffffffffffffffffffffffffffffff1916827bffffffffffffffffffffffffffffffffffffffffffffffffffffffff19161480611cc957507f5b5e139f000000000000000000000000000000000000000000000000000000007bffffffffffffffffffffffffffffffffffffffffffffffffffffffff1916827bffffffffffffffffffffffffffffffffffffffffffffffffffffffff1916145b80611cd95750611cd88261229a565b5b9050919050565b6000611ceb826108c9565b9050611cfb81600084600161195f565b611d04826108c9565b90506004600083815260200190815260200160002060006101000a81549073ffffffffffffffffffffffffffffffffffffffff02191690556001600360008373ffffffffffffffffffffffffffffffffffffffff1673ffffffffffffffffffffffffffffffffffffffff168152602001908152602001600020600082825403925050819055506002600083815260200190815260200160002060006101000a81549073ffffffffffffffffffffffffffffffffffffffff021916905581600073ffffffffffffffffffffffffffffffffffffffff168273ffffffffffffffffffffffffffffffffffffffff167fddf252ad1be2c89b69c2b068fc378daa952ba7f163c4a11628f55a4df523b3ef60405160405180910390a4611e2a816000846001611971565b5050565b611e3a84848484612304565b6001811115611e7e576040517f08c379a0000000000000000000000000000000000000000000000000000000008152600401611e7590613c01565b60405180910390fd5b6000829050600073ffffffffffffffffffffffffffffffffffffffff168573ffffffffffffffffffffffffffffffffffffffff1603611ec557611ec08161230a565b611f04565b8373ffffffffffffffffffffffffffffffffffffffff168573ffffffffffffffffffffffffffffffffffffffff1614611f0357611f028582612353565b5b5b600073ffffffffffffffffffffffffffffffffffffffff168473ffffffffffffffffffffffffffffffffffffffff1603611f4657611f41816124c0565b611f85565b8473ffffffffffffffffffffffffffffffffffffffff168473ffffffffffffffffffffffffffffffffffffffff1614611f8457611f838482612591565b5b5b5050505050565b6000808273ffffffffffffffffffffffffffffffffffffffff163b119050919050565b606060006001611fbe84612610565b01905060008167ffffffffffffffff811115611fdd57611fdc612c06565b5b6040519080825280601f01601f19166020018201604052801561200f5781602001600182028036833780820191505090505b509050600082602001820190505b600115612072578080600190039150507f3031323334353637383961626364656600000000000000000000000000000000600a86061a8153600a858161206657612065613c21565b5b0494506000850361201d575b819350505050919050565b600073ffffffffffffffffffffffffffffffffffffffff168273ffffffffffffffffffffffffffffffffffffffff16036120ec576040517f08c379a00000000000000000000000000000000000000000000000000000000081526004016120e390613c9c565b60405180910390fd5b6120f5816118cb565b15612135576040517f08c379a000000000000000000000000000000000000000000000000000000000815260040161212c90613d08565b60405180910390fd5b61214360008383600161195f565b61214c816118cb565b1561218c576040517f08c379a000000000000000000000000000000000000000000000000000000000815260040161218390613d08565b60405180910390fd5b6001600360008473ffffffffffffffffffffffffffffffffffffffff1673ffffffffffffffffffffffffffffffffffffffff16815260200190815260200160002060008282540192505081905550816002600083815260200190815260200160002060006101000a81548173ffffffffffffffffffffffffffffffffffffffff021916908373ffffffffffffffffffffffffffffffffffffffff160217905550808273ffffffffffffffffffffffffffffffffffffffff16600073ffffffffffffffffffffffffffffffffffffffff167fddf252ad1be2c89b69c2b068fc378daa952ba7f163c4a11628f55a4df523b3ef60405160405180910390a4612296600083836001611971565b5050565b60007f01ffc9a7000000000000000000000000000000000000000000000000000000007bffffffffffffffffffffffffffffffffffffffffffffffffffffffff1916827bffffffffffffffffffffffffffffffffffffffffffffffffffffffff1916149050919050565b50505050565b6008805490506009600083815260200190815260200160002081905550600881908060018154018082558091505060019003906000526020600020016000909190919091505550565b600060016123608461094f565b61236a9190613d57565b905060006007600084815260200190815260200160002054905081811461244f576000600660008673ffffffffffffffffffffffffffffffffffffffff1673ffffffffffffffffffffffffffffffffffffffff168152602001908152602001600020600084815260200190815260200160002054905080600660008773ffffffffffffffffffffffffffffffffffffffff1673ffffffffffffffffffffffffffffffffffffffff168152602001908152602001600020600084815260200190815260200160002081905550816007600083815260200190815260200160002081905550505b6007600084815260200190815260200160002060009055600660008573ffffffffffffffffffffffffffffffffffffffff1673ffffffffffffffffffffffffffffffffffffffff16815260200190815260200160002060008381526020019081526020016000206000905550505050565b600060016008805490506124d49190613d57565b90506000600960008481526020019081526020016000205490506000600883815481106125045761250361322b565b5b9060005260206000200154905080600883815481106125265761252561322b565b5b90600052602060002001819055508160096000838152602001908152602001600020819055506009600085815260200190815260200160002060009055600880548061257557612574613d8b565b5b6001900381819060005260206000200160009055905550505050565b600061259c8361094f565b905081600660008573ffffffffffffffffffffffffffffffffffffffff1673ffffffffffffffffffffffffffffffffffffffff168152602001908152602001600020600083815260200190815260200160002081905550806007600084815260200190815260200160002081905550505050565b600080600090507a184f03e93ff9f4daa797ed6e38ed64bf6a1f010000000000000000831061266e577a184f03e93ff9f4daa797ed6e38ed64bf6a1f010000000000000000838161266457612663613c21565b5b0492506040810190505b6d04ee2d6d415b85acef810000000083106126ab576d04ee2d6d415b85acef810000000083816126a1576126a0613c21565b5b0492506020810190505b662386f26fc1000083106126da57662386f26fc1000083816126d0576126cf613c21565b5b0492506010810190505b6305f5e1008310612703576305f5e10083816126f9576126f8613c21565b5b0492506008810190505b612710831061272857612710838161271e5761271d613c21565b5b0492506004810190505b6064831061274b576064838161274157612740613c21565b5b0492506002810190505b600a831061275a576001810190505b80915050919050565b50805461276f90612f20565b6000825580601f1061278157506127a0565b601f01602090049060005260206000209081019061279f91906127a3565b5b50565b5b808211156127bc5760008160009055506001016127a4565b5090565b6000604051905090565b600080fd5b600080fd5b60007fffffffff0000000000000000000000000000000000000000000000000000000082169050919050565b612809816127d4565b811461281457600080fd5b50565b60008135905061282681612800565b92915050565b600060208284031215612842576128416127ca565b5b600061285084828501612817565b91505092915050565b60008115159050919050565b61286e81612859565b82525050565b60006020820190506128896000830184612865565b92915050565b600081519050919050565b600082825260208201905092915050565b60005b838110156128c95780820151818401526020810190506128ae565b60008484015250505050565b6000601f19601f8301169050919050565b60006128f18261288f565b6128fb818561289a565b935061290b8185602086016128ab565b612914816128d5565b840191505092915050565b6000602082019050818103600083015261293981846128e6565b905092915050565b6000819050919050565b61295481612941565b811461295f57600080fd5b50565b6000813590506129718161294b565b92915050565b60006020828403121561298d5761298c6127ca565b5b600061299b84828501612962565b91505092915050565b600073ffffffffffffffffffffffffffffffffffffffff82169050919050565b60006129cf826129a4565b9050919050565b6129df816129c4565b82525050565b60006020820190506129fa60008301846129d6565b92915050565b612a09816129c4565b8114612a1457600080fd5b50565b600081359050612a2681612a00565b92915050565b60008060408385031215612a4357612a426127ca565b5b6000612a5185828601612a17565b9250506020612a6285828601612962565b9150509250929050565b612a7581612941565b82525050565b6000602082019050612a906000830184612a6c565b92915050565b600080600060608486031215612aaf57612aae6127ca565b5b6000612abd86828701612a17565b9350506020612ace86828701612a17565b9250506040612adf86828701612962565b9150509250925092565b600060208284031215612aff57612afe6127ca565b5b6000612b0d84828501612a17565b91505092915050565b6000819050919050565b6000612b3b612b36612b31846129a4565b612b16565b6129a4565b9050919050565b6000612b4d82612b20565b9050919050565b6000612b5f82612b42565b9050919050565b612b6f81612b54565b82525050565b6000602082019050612b8a6000830184612b66565b92915050565b612b9981612859565b8114612ba457600080fd5b50565b600081359050612bb681612b90565b92915050565b60008060408385031215612bd357612bd26127ca565b5b6000612be185828601612a17565b9250506020612bf285828601612ba7565b9150509250929050565b600080fd5b600080fd5b7f4e487b7100000000000000000000000000000000000000000000000000000000600052604160045260246000fd5b612c3e826128d5565b810181811067ffffffffffffffff82111715612c5d57612c5c612c06565b5b80604052505050565b6000612c706127c0565b9050612c7c8282612c35565b919050565b600067ffffffffffffffff821115612c9c57612c9b612c06565b5b612ca5826128d5565b9050602081019050919050565b82818337600083830152505050565b6000612cd4612ccf84612c81565b612c66565b905082815260208101848484011115612cf057612cef612c01565b5b612cfb848285612cb2565b509392505050565b600082601f830112612d1857612d17612bfc565b5b8135612d28848260208601612cc1565b91505092915050565b60008060008060808587031215612d4b57612d4a6127ca565b5b6000612d5987828801612a17565b9450506020612d6a87828801612a17565b9350506040612d7b87828801612962565b925050606085013567ffffffffffffffff811115612d9c57612d9b6127cf565b5b612da887828801612d03565b91505092959194509250565b600067ffffffffffffffff821115612dcf57612dce612c06565b5b612dd8826128d5565b9050602081019050919050565b6000612df8612df384612db4565b612c66565b905082815260208101848484011115612e1457612e13612c01565b5b612e1f848285612cb2565b509392505050565b600082601f830112612e3c57612e3b612bfc565b5b8135612e4c848260208601612de5565b91505092915050565b60008060408385031215612e6c57612e6b6127ca565b5b6000612e7a85828601612a17565b925050602083013567ffffffffffffffff811115612e9b57612e9a6127cf565b5b612ea785828601612e27565b9150509250929050565b60008060408385031215612ec857612ec76127ca565b5b6000612ed685828601612a17565b9250506020612ee785828601612a17565b9150509250929050565b7f4e487b7100000000000000000000000000000000000000000000000000000000600052602260045260246000fd5b60006002820490506001821680612f3857607f821691505b602082108103612f4b57612f4a612ef1565b5b50919050565b7f4552433732313a20617070726f76616c20746f2063757272656e74206f776e6560008201527f7200000000000000000000000000000000000000000000000000000000000000602082015250565b6000612fad60218361289a565b9150612fb882612f51565b604082019050919050565b60006020820190508181036000830152612fdc81612fa0565b9050919050565b7f4552433732313a20617070726f76652063616c6c6572206973206e6f7420746f60008201527f6b656e206f776e6572206f7220617070726f76656420666f7220616c6c000000602082015250565b600061303f603d8361289a565b915061304a82612fe3565b604082019050919050565b6000602082019050818103600083015261306e81613032565b9050919050565b7f4552433732313a2063616c6c6572206973206e6f7420746f6b656e206f776e6560008201527f72206f7220617070726f76656400000000000000000000000000000000000000602082015250565b60006130d1602d8361289a565b91506130dc82613075565b604082019050919050565b60006020820190508181036000830152613100816130c4565b9050919050565b7f455243373231456e756d657261626c653a206f776e657220696e646578206f7560008201527f74206f6620626f756e6473000000000000000000000000000000000000000000602082015250565b6000613163602b8361289a565b915061316e82613107565b604082019050919050565b6000602082019050818103600083015261319281613156565b9050919050565b7f455243373231456e756d657261626c653a20676c6f62616c20696e646578206f60008201527f7574206f6620626f756e64730000000000000000000000000000000000000000602082015250565b60006131f5602c8361289a565b915061320082613199565b604082019050919050565b60006020820190508181036000830152613224816131e8565b9050919050565b7f4e487b7100000000000000000000000000000000000000000000000000000000600052603260045260246000fd5b7f4552433732313a20696e76616c696420746f6b656e2049440000000000000000600082015250565b600061329060188361289a565b915061329b8261325a565b602082019050919050565b600060208201905081810360008301526132bf81613283565b9050919050565b7f4552433732313a2061646472657373207a65726f206973206e6f74206120766160008201527f6c6964206f776e65720000000000000000000000000000000000000000000000602082015250565b600061332260298361289a565b915061332d826132c6565b604082019050919050565b6000602082019050818103600083015261335181613315565b9050919050565b600082825260208201905092915050565b50565b6000613379600083613358565b915061338482613369565b600082019050919050565b600060c0820190506133a460008301886129d6565b6133b16020830187612a6c565b6133be60408301866129d6565b6133cb6060830185612a6c565b6133d86080830184612a6c565b81810360a08301526133e98161336c565b90509695505050505050565b60008151905061340481612a00565b92915050565b6000602082840312156134205761341f6127ca565b5b600061342e848285016133f5565b91505092915050565b7f4f776e61626c653a206e6577206f776e657220697320746865207a65726f206160008201527f6464726573730000000000000000000000000000000000000000000000000000602082015250565b600061349360268361289a565b915061349e82613437565b604082019050919050565b600060208201905081810360008301526134c281613486565b9050919050565b7f4552433732313a207472616e736665722066726f6d20696e636f72726563742060008201527f6f776e6572000000000000000000000000000000000000000000000000000000602082015250565b600061352560258361289a565b9150613530826134c9565b604082019050919050565b6000602082019050818103600083015261355481613518565b9050919050565b7f4552433732313a207472616e7366657220746f20746865207a65726f2061646460008201527f7265737300000000000000000000000000000000000000000000000000000000602082015250565b60006135b760248361289a565b91506135c28261355b565b604082019050919050565b600060208201905081810360008301526135e6816135aa565b9050919050565b7f4f776e61626c653a2063616c6c6572206973206e6f7420746865206f776e6572600082015250565b600061362360208361289a565b915061362e826135ed565b602082019050919050565b6000602082019050818103600083015261365281613616565b9050919050565b7f4552433732313a20617070726f766520746f2063616c6c657200000000000000600082015250565b600061368f60198361289a565b915061369a82613659565b602082019050919050565b600060208201905081810360008301526136be81613682565b9050919050565b7f4552433732313a207472616e7366657220746f206e6f6e20455243373231526560008201527f63656976657220696d706c656d656e7465720000000000000000000000000000602082015250565b600061372160328361289a565b915061372c826136c5565b604082019050919050565b6000602082019050818103600083015261375081613714565b9050919050565b600081905092915050565b600061376d8261288f565b6137778185613757565b93506137878185602086016128ab565b80840191505092915050565b600061379f8285613762565b91506137ab8284613762565b91508190509392505050565b7f45524337323155524953746f726167653a2055524920736574206f66206e6f6e60008201527f6578697374656e7420746f6b656e000000000000000000000000000000000000602082015250565b6000613813602e8361289a565b915061381e826137b7565b604082019050919050565b6000602082019050818103600083015261384281613806565b9050919050565b60008190508160005260206000209050919050565b60006020601f8301049050919050565b600082821b905092915050565b6000600883026138ab7fffffffffffffffffffffffffffffffffffffffffffffffffffffffffffffffff8261386e565b6138b5868361386e565b95508019841693508086168417925050509392505050565b60006138e86138e36138de84612941565b612b16565b612941565b9050919050565b6000819050919050565b613902836138cd565b61391661390e826138ef565b84845461387b565b825550505050565b600090565b61392b61391e565b6139368184846138f9565b505050565b5b8181101561395a5761394f600082613923565b60018101905061393c565b5050565b601f82111561399f5761397081613849565b6139798461385e565b81016020851015613988578190505b61399c6139948561385e565b83018261393b565b50505b505050565b600082821c905092915050565b60006139c2600019846008026139a4565b1980831691505092915050565b60006139db83836139b1565b9150826002028217905092915050565b6139f48261288f565b67ffffffffffffffff811115613a0d57613a0c612c06565b5b613a178254612f20565b613a2282828561395e565b600060209050601f831160018114613a555760008415613a43578287015190505b613a4d85826139cf565b865550613ab5565b601f198416613a6386613849565b60005b82811015613a8b57848901518255600182019150602085019450602081019050613a66565b86831015613aa85784890151613aa4601f8916826139b1565b8355505b6001600288020188555050505b505050505050565b600081519050919050565b6000613ad382613abd565b613add8185613358565b9350613aed8185602086016128ab565b613af6816128d5565b840191505092915050565b6000608082019050613b1660008301876129d6565b613b2360208301866129d6565b613b306040830185612a6c565b8181036060830152613b428184613ac8565b905095945050505050565b600081519050613b5c81612800565b92915050565b600060208284031215613b7857613b776127ca565b5b6000613b8684828501613b4d565b91505092915050565b7f455243373231456e756d657261626c653a20636f6e736563757469766520747260008201527f616e7366657273206e6f7420737570706f727465640000000000000000000000602082015250565b6000613beb60358361289a565b9150613bf682613b8f565b604082019050919050565b60006020820190508181036000830152613c1a81613bde565b9050919050565b7f4e487b7100000000000000000000000000000000000000000000000000000000600052601260045260246000fd5b7f4552433732313a206d696e7420746f20746865207a65726f2061646472657373600082015250565b6000613c8660208361289a565b9150613c9182613c50565b602082019050919050565b60006020820190508181036000830152613cb581613c79565b9050919050565b7f4552433732313a20746f6b656e20616c7265616479206d696e74656400000000600082015250565b6000613cf2601c8361289a565b9150613cfd82613cbc565b602082019050919050565b60006020820190508181036000830152613d2181613ce5565b9050919050565b7f4e487b7100000000000000000000000000000000000000000000000000000000600052601160045260246000fd5b6000613d6282612941565b9150613d6d83612941565b9250828203905081811115613d8557613d84613d28565b5b92915050565b7f4e487b7100000000000000000000000000000000000000000000000000000000600052603160045260246000fdfea2646970667358221220b3ad07f3a69b9f05fb2d648d5df61d81f4fbdad5f69573242b71463d5b9681f664736f6c63430008120033",
  "devdoc": {
    "events": {
      "Approval(address,address,uint256)": {
        "details": "Emitted when `owner` enables `approved` to manage the `tokenId` token."
      },
      "ApprovalForAll(address,address,bool)": {
        "details": "Emitted when `owner` enables or disables (`approved`) `operator` to manage all of its assets."
      },
      "BatchMetadataUpdate(uint256,uint256)": {
        "details": "This event emits when the metadata of a range of tokens is changed. So that the third-party platforms such as NFT market could timely update the images and related attributes of the NFTs."
      },
      "MetadataUpdate(uint256)": {
        "details": "This event emits when the metadata of a token is changed. So that the third-party platforms such as NFT market could timely update the images and related attributes of the NFT."
      },
      "Transfer(address,address,uint256)": {
        "details": "Emitted when `tokenId` token is transferred from `from` to `to`."
      }
    },
    "kind": "dev",
    "methods": {
      "approve(address,uint256)": {
        "details": "See {IERC721-approve}."
      },
      "balanceOf(address)": {
        "details": "See {IERC721-balanceOf}."
      },
      "burn(uint256)": {
        "details": "Burns `tokenId`. See {ERC721-_burn}. Requirements: - The caller must own `tokenId` or be an approved operator."
      },
      "getApproved(uint256)": {
        "details": "See {IERC721-getApproved}."
      },
      "isApprovedForAll(address,address)": {
        "details": "See {IERC721-isApprovedForAll}."
      },
      "name()": {
        "details": "See {IERC721Metadata-name}."
      },
      "owner()": {
        "details": "Returns the address of the current owner."
      },
      "ownerOf(uint256)": {
        "details": "See {IERC721-ownerOf}."
      },
      "renounceOwnership()": {
        "details": "Leaves the contract without owner. It will not be possible to call `onlyOwner` functions. Can only be called by the current owner. NOTE: Renouncing ownership will leave the contract without an owner, thereby disabling any functionality that is only available to the owner."
      },
      "safeTransferFrom(address,address,uint256)": {
        "details": "See {IERC721-safeTransferFrom}."
      },
      "safeTransferFrom(address,address,uint256,bytes)": {
        "details": "See {IERC721-safeTransferFrom}."
      },
      "setApprovalForAll(address,bool)": {
        "details": "See {IERC721-setApprovalForAll}."
      },
      "symbol()": {
        "details": "See {IERC721Metadata-symbol}."
      },
      "tokenByIndex(uint256)": {
        "details": "See {IERC721Enumerable-tokenByIndex}."
      },
      "tokenOfOwnerByIndex(address,uint256)": {
        "details": "See {IERC721Enumerable-tokenOfOwnerByIndex}."
      },
      "totalSupply()": {
        "details": "See {IERC721Enumerable-totalSupply}."
      },
      "transferFrom(address,address,uint256)": {
        "details": "See {IERC721-transferFrom}."
      },
      "transferOwnership(address)": {
        "details": "Transfers ownership of the contract to a new account (`newOwner`). Can only be called by the current owner."
      }
    },
    "version": 1
  },
  "userdoc": {
    "kind": "user",
    "methods": {},
    "version": 1
  },
  "storageLayout": {
    "storage": [
      {
        "astId": 221,
        "contract": "contracts/BGAvatars.sol:BGAvatars",
        "label": "_name",
        "offset": 0,
        "slot": "0",
        "type": "t_string_storage"
      },
      {
        "astId": 223,
        "contract": "contracts/BGAvatars.sol:BGAvatars",
        "label": "_symbol",
        "offset": 0,
        "slot": "1",
        "type": "t_string_storage"
      },
      {
        "astId": 227,
        "contract": "contracts/BGAvatars.sol:BGAvatars",
        "label": "_owners",
        "offset": 0,
        "slot": "2",
        "type": "t_mapping(t_uint256,t_address)"
      },
      {
        "astId": 231,
        "contract": "contracts/BGAvatars.sol:BGAvatars",
        "label": "_balances",
        "offset": 0,
        "slot": "3",
        "type": "t_mapping(t_address,t_uint256)"
      },
      {
        "astId": 235,
        "contract": "contracts/BGAvatars.sol:BGAvatars",
        "label": "_tokenApprovals",
        "offset": 0,
        "slot": "4",
        "type": "t_mapping(t_uint256,t_address)"
      },
      {
        "astId": 241,
        "contract": "contracts/BGAvatars.sol:BGAvatars",
        "label": "_operatorApprovals",
        "offset": 0,
        "slot": "5",
        "type": "t_mapping(t_address,t_mapping(t_address,t_bool))"
      },
      {
        "astId": 1301,
        "contract": "contracts/BGAvatars.sol:BGAvatars",
        "label": "_ownedTokens",
        "offset": 0,
        "slot": "6",
        "type": "t_mapping(t_address,t_mapping(t_uint256,t_uint256))"
      },
      {
        "astId": 1305,
        "contract": "contracts/BGAvatars.sol:BGAvatars",
        "label": "_ownedTokensIndex",
        "offset": 0,
        "slot": "7",
        "type": "t_mapping(t_uint256,t_uint256)"
      },
      {
        "astId": 1308,
        "contract": "contracts/BGAvatars.sol:BGAvatars",
        "label": "_allTokens",
        "offset": 0,
        "slot": "8",
        "type": "t_array(t_uint256)dyn_storage"
      },
      {
        "astId": 1312,
        "contract": "contracts/BGAvatars.sol:BGAvatars",
        "label": "_allTokensIndex",
        "offset": 0,
        "slot": "9",
        "type": "t_mapping(t_uint256,t_uint256)"
      },
      {
        "astId": 1656,
        "contract": "contracts/BGAvatars.sol:BGAvatars",
        "label": "_tokenURIs",
        "offset": 0,
        "slot": "10",
        "type": "t_mapping(t_uint256,t_string_storage)"
      },
      {
        "astId": 7,
        "contract": "contracts/BGAvatars.sol:BGAvatars",
        "label": "_owner",
        "offset": 0,
        "slot": "11",
        "type": "t_address"
      },
      {
        "astId": 4311,
        "contract": "contracts/BGAvatars.sol:BGAvatars",
        "label": "_tokenIdCounter",
        "offset": 0,
        "slot": "12",
        "type": "t_struct(Counter)2212_storage"
      },
      {
        "astId": 4313,
        "contract": "contracts/BGAvatars.sol:BGAvatars",
        "label": "accountImplementation",
        "offset": 0,
        "slot": "13",
        "type": "t_address"
      },
      {
        "astId": 4316,
        "contract": "contracts/BGAvatars.sol:BGAvatars",
        "label": "registry",
        "offset": 0,
        "slot": "14",
        "type": "t_contract(IERC6551Registry)5071"
      }
    ],
    "types": {
      "t_address": {
        "encoding": "inplace",
        "label": "address",
        "numberOfBytes": "20"
      },
      "t_array(t_uint256)dyn_storage": {
        "base": "t_uint256",
        "encoding": "dynamic_array",
        "label": "uint256[]",
        "numberOfBytes": "32"
      },
      "t_bool": {
        "encoding": "inplace",
        "label": "bool",
        "numberOfBytes": "1"
      },
      "t_contract(IERC6551Registry)5071": {
        "encoding": "inplace",
        "label": "contract IERC6551Registry",
        "numberOfBytes": "20"
      },
      "t_mapping(t_address,t_bool)": {
        "encoding": "mapping",
        "key": "t_address",
        "label": "mapping(address => bool)",
        "numberOfBytes": "32",
        "value": "t_bool"
      },
      "t_mapping(t_address,t_mapping(t_address,t_bool))": {
        "encoding": "mapping",
        "key": "t_address",
        "label": "mapping(address => mapping(address => bool))",
        "numberOfBytes": "32",
        "value": "t_mapping(t_address,t_bool)"
      },
      "t_mapping(t_address,t_mapping(t_uint256,t_uint256))": {
        "encoding": "mapping",
        "key": "t_address",
        "label": "mapping(address => mapping(uint256 => uint256))",
        "numberOfBytes": "32",
        "value": "t_mapping(t_uint256,t_uint256)"
      },
      "t_mapping(t_address,t_uint256)": {
        "encoding": "mapping",
        "key": "t_address",
        "label": "mapping(address => uint256)",
        "numberOfBytes": "32",
        "value": "t_uint256"
      },
      "t_mapping(t_uint256,t_address)": {
        "encoding": "mapping",
        "key": "t_uint256",
        "label": "mapping(uint256 => address)",
        "numberOfBytes": "32",
        "value": "t_address"
      },
      "t_mapping(t_uint256,t_string_storage)": {
        "encoding": "mapping",
        "key": "t_uint256",
        "label": "mapping(uint256 => string)",
        "numberOfBytes": "32",
        "value": "t_string_storage"
      },
      "t_mapping(t_uint256,t_uint256)": {
        "encoding": "mapping",
        "key": "t_uint256",
        "label": "mapping(uint256 => uint256)",
        "numberOfBytes": "32",
        "value": "t_uint256"
      },
      "t_string_storage": {
        "encoding": "bytes",
        "label": "string",
        "numberOfBytes": "32"
      },
      "t_struct(Counter)2212_storage": {
        "encoding": "inplace",
        "label": "struct Counters.Counter",
        "members": [
          {
            "astId": 2211,
            "contract": "contracts/BGAvatars.sol:BGAvatars",
            "label": "_value",
            "offset": 0,
            "slot": "0",
            "type": "t_uint256"
          }
        ],
        "numberOfBytes": "32"
      },
      "t_uint256": {
        "encoding": "inplace",
        "label": "uint256",
        "numberOfBytes": "32"
      }
    }
  }
}