{
  "address": "0x04D6EAF0c4d3837CB4343999366FE33073D80187",
  "abi": [
    {
      "inputs": [
        {
          "internalType": "address",
          "name": "_accountImplementation",
          "type": "address"
        },
        {
          "internalType": "address",
          "name": "_registry",
          "type": "address"
        }
      ],
      "stateMutability": "nonpayable",
      "type": "constructor"
    },
    {
      "anonymous": false,
      "inputs": [
        {
          "indexed": true,
          "internalType": "address",
          "name": "owner",
          "type": "address"
        },
        {
          "indexed": true,
          "internalType": "address",
          "name": "approved",
          "type": "address"
        },
        {
          "indexed": true,
          "internalType": "uint256",
          "name": "tokenId",
          "type": "uint256"
        }
      ],
      "name": "Approval",
      "type": "event"
    },
    {
      "anonymous": false,
      "inputs": [
        {
          "indexed": true,
          "internalType": "address",
          "name": "owner",
          "type": "address"
        },
        {
          "indexed": true,
          "internalType": "address",
          "name": "operator",
          "type": "address"
        },
        {
          "indexed": false,
          "internalType": "bool",
          "name": "approved",
          "type": "bool"
        }
      ],
      "name": "ApprovalForAll",
      "type": "event"
    },
    {
      "anonymous": false,
      "inputs": [
        {
          "indexed": true,
          "internalType": "address",
          "name": "owner",
          "type": "address"
        },
        {
          "indexed": true,
          "internalType": "uint256",
          "name": "tokenId",
          "type": "uint256"
        },
        {
          "indexed": true,
          "internalType": "address",
          "name": "account",
          "type": "address"
        },
        {
          "indexed": false,
          "internalType": "string",
          "name": "tokenURI",
          "type": "string"
        }
      ],
      "name": "AvatarCreated",
      "type": "event"
    },
    {
      "anonymous": false,
      "inputs": [
        {
          "indexed": false,
          "internalType": "uint256",
          "name": "_fromTokenId",
          "type": "uint256"
        },
        {
          "indexed": false,
          "internalType": "uint256",
          "name": "_toTokenId",
          "type": "uint256"
        }
      ],
      "name": "BatchMetadataUpdate",
      "type": "event"
    },
    {
      "anonymous": false,
      "inputs": [
        {
          "indexed": false,
          "internalType": "uint256",
          "name": "_tokenId",
          "type": "uint256"
        }
      ],
      "name": "MetadataUpdate",
      "type": "event"
    },
    {
      "anonymous": false,
      "inputs": [
        {
          "indexed": true,
          "internalType": "address",
          "name": "previousOwner",
          "type": "address"
        },
        {
          "indexed": true,
          "internalType": "address",
          "name": "newOwner",
          "type": "address"
        }
      ],
      "name": "OwnershipTransferred",
      "type": "event"
    },
    {
      "anonymous": false,
      "inputs": [
        {
          "indexed": true,
          "internalType": "address",
          "name": "from",
          "type": "address"
        },
        {
          "indexed": true,
          "internalType": "address",
          "name": "to",
          "type": "address"
        },
        {
          "indexed": true,
          "internalType": "uint256",
          "name": "tokenId",
          "type": "uint256"
        }
      ],
      "name": "Transfer",
      "type": "event"
    },
    {
      "inputs": [],
      "name": "accountImplementation",
      "outputs": [
        {
          "internalType": "address",
          "name": "",
          "type": "address"
        }
      ],
      "stateMutability": "view",
      "type": "function"
    },
    {
      "inputs": [
        {
          "internalType": "address",
          "name": "to",
          "type": "address"
        },
        {
          "internalType": "uint256",
          "name": "tokenId",
          "type": "uint256"
        }
      ],
      "name": "approve",
      "outputs": [],
      "stateMutability": "nonpayable",
      "type": "function"
    },
    {
      "inputs": [
        {
          "internalType": "address",
          "name": "owner",
          "type": "address"
        }
      ],
      "name": "balanceOf",
      "outputs": [
        {
          "internalType": "uint256",
          "name": "",
          "type": "uint256"
        }
      ],
      "stateMutability": "view",
      "type": "function"
    },
    {
      "inputs": [
        {
          "internalType": "uint256",
          "name": "tokenId",
          "type": "uint256"
        }
      ],
      "name": "burn",
      "outputs": [],
      "stateMutability": "nonpayable",
      "type": "function"
    },
    {
      "inputs": [
        {
          "internalType": "uint256",
          "name": "tokenId",
          "type": "uint256"
        }
      ],
      "name": "getApproved",
      "outputs": [
        {
          "internalType": "address",
          "name": "",
          "type": "address"
        }
      ],
      "stateMutability": "view",
      "type": "function"
    },
    {
      "inputs": [
        {
          "internalType": "address",
          "name": "owner",
          "type": "address"
        },
        {
          "internalType": "address",
          "name": "operator",
          "type": "address"
        }
      ],
      "name": "isApprovedForAll",
      "outputs": [
        {
          "internalType": "bool",
          "name": "",
          "type": "bool"
        }
      ],
      "stateMutability": "view",
      "type": "function"
    },
    {
      "inputs": [],
      "name": "name",
      "outputs": [
        {
          "internalType": "string",
          "name": "",
          "type": "string"
        }
      ],
      "stateMutability": "view",
      "type": "function"
    },
    {
      "inputs": [],
      "name": "owner",
      "outputs": [
        {
          "internalType": "address",
          "name": "",
          "type": "address"
        }
      ],
      "stateMutability": "view",
      "type": "function"
    },
    {
      "inputs": [
        {
          "internalType": "uint256",
          "name": "tokenId",
          "type": "uint256"
        }
      ],
      "name": "ownerOf",
      "outputs": [
        {
          "internalType": "address",
          "name": "",
          "type": "address"
        }
      ],
      "stateMutability": "view",
      "type": "function"
    },
    {
      "inputs": [],
      "name": "registry",
      "outputs": [
        {
          "internalType": "contract IERC6551Registry",
          "name": "",
          "type": "address"
        }
      ],
      "stateMutability": "view",
      "type": "function"
    },
    {
      "inputs": [],
      "name": "renounceOwnership",
      "outputs": [],
      "stateMutability": "nonpayable",
      "type": "function"
    },
    {
      "inputs": [
        {
          "internalType": "address",
          "name": "to",
          "type": "address"
        },
        {
          "internalType": "string",
          "name": "uri",
          "type": "string"
        }
      ],
      "name": "safeMint",
      "outputs": [],
      "stateMutability": "nonpayable",
      "type": "function"
    },
    {
      "inputs": [
        {
          "internalType": "address",
          "name": "from",
          "type": "address"
        },
        {
          "internalType": "address",
          "name": "to",
          "type": "address"
        },
        {
          "internalType": "uint256",
          "name": "tokenId",
          "type": "uint256"
        }
      ],
      "name": "safeTransferFrom",
      "outputs": [],
      "stateMutability": "nonpayable",
      "type": "function"
    },
    {
      "inputs": [
        {
          "internalType": "address",
          "name": "from",
          "type": "address"
        },
        {
          "internalType": "address",
          "name": "to",
          "type": "address"
        },
        {
          "internalType": "uint256",
          "name": "tokenId",
          "type": "uint256"
        },
        {
          "internalType": "bytes",
          "name": "data",
          "type": "bytes"
        }
      ],
      "name": "safeTransferFrom",
      "outputs": [],
      "stateMutability": "nonpayable",
      "type": "function"
    },
    {
      "inputs": [
        {
          "internalType": "address",
          "name": "operator",
          "type": "address"
        },
        {
          "internalType": "bool",
          "name": "approved",
          "type": "bool"
        }
      ],
      "name": "setApprovalForAll",
      "outputs": [],
      "stateMutability": "nonpayable",
      "type": "function"
    },
    {
      "inputs": [
        {
          "internalType": "bytes4",
          "name": "interfaceId",
          "type": "bytes4"
        }
      ],
      "name": "supportsInterface",
      "outputs": [
        {
          "internalType": "bool",
          "name": "",
          "type": "bool"
        }
      ],
      "stateMutability": "view",
      "type": "function"
    },
    {
      "inputs": [],
      "name": "symbol",
      "outputs": [
        {
          "internalType": "string",
          "name": "",
          "type": "string"
        }
      ],
      "stateMutability": "view",
      "type": "function"
    },
    {
      "inputs": [
        {
          "internalType": "uint256",
          "name": "index",
          "type": "uint256"
        }
      ],
      "name": "tokenByIndex",
      "outputs": [
        {
          "internalType": "uint256",
          "name": "",
          "type": "uint256"
        }
      ],
      "stateMutability": "view",
      "type": "function"
    },
    {
      "inputs": [
        {
          "internalType": "address",
          "name": "owner",
          "type": "address"
        },
        {
          "internalType": "uint256",
          "name": "index",
          "type": "uint256"
        }
      ],
      "name": "tokenOfOwnerByIndex",
      "outputs": [
        {
          "internalType": "uint256",
          "name": "",
          "type": "uint256"
        }
      ],
      "stateMutability": "view",
      "type": "function"
    },
    {
      "inputs": [
        {
          "internalType": "uint256",
          "name": "tokenId",
          "type": "uint256"
        }
      ],
      "name": "tokenURI",
      "outputs": [
        {
          "internalType": "string",
          "name": "",
          "type": "string"
        }
      ],
      "stateMutability": "view",
      "type": "function"
    },
    {
      "inputs": [],
      "name": "totalSupply",
      "outputs": [
        {
          "internalType": "uint256",
          "name": "",
          "type": "uint256"
        }
      ],
      "stateMutability": "view",
      "type": "function"
    },
    {
      "inputs": [
        {
          "internalType": "address",
          "name": "from",
          "type": "address"
        },
        {
          "internalType": "address",
          "name": "to",
          "type": "address"
        },
        {
          "internalType": "uint256",
          "name": "tokenId",
          "type": "uint256"
        }
      ],
      "name": "transferFrom",
      "outputs": [],
      "stateMutability": "nonpayable",
      "type": "function"
    },
    {
      "inputs": [
        {
          "internalType": "address",
          "name": "newOwner",
          "type": "address"
        }
      ],
      "name": "transferOwnership",
      "outputs": [],
      "stateMutability": "nonpayable",
      "type": "function"
    }
  ],
  "transactionHash": "0x0ae6708fde0807c8558bc19000e72e07cf6a7016fd5eaca3149fa41db4a32295",
  "args": [
    "0xE391b13A4819391f96DA2708D57fc54B72B4a68a",
    "0x02101dfB77FDE026414827Fdc604ddAF224F0921"
  ],
  "numDeployments": 1,
  "solcInputHash": "5d93b39851727baee25a9c032ebed19e",
  "bytecode": "0x60806040523480156200001157600080fd5b506040516200444d3803806200444d8339818101604052810190620000379190620002d8565b6040518060400160405280600981526020017f42474176617461727300000000000000000000000000000000000000000000008152506040518060400160405280600381526020017f42474100000000000000000000000000000000000000000000000000000000008152508160009081620000b4919062000599565b508060019081620000c6919062000599565b505050620000e9620000dd6200018a60201b60201c565b6200019260201b60201c565b62000100600c6200025860201b62000dd61760201c565b81600d60006101000a81548173ffffffffffffffffffffffffffffffffffffffff021916908373ffffffffffffffffffffffffffffffffffffffff16021790555080600e60006101000a81548173ffffffffffffffffffffffffffffffffffffffff021916908373ffffffffffffffffffffffffffffffffffffffff160217905550505062000680565b600033905090565b6000600b60009054906101000a900473ffffffffffffffffffffffffffffffffffffffff16905081600b60006101000a81548173ffffffffffffffffffffffffffffffffffffffff021916908373ffffffffffffffffffffffffffffffffffffffff1602179055508173ffffffffffffffffffffffffffffffffffffffff168173ffffffffffffffffffffffffffffffffffffffff167f8be0079c531659141344cd1fd0a4f28419497f9722a3daafe3b4186f6b6457e060405160405180910390a35050565b6001816000016000828254019250508190555050565b600080fd5b600073ffffffffffffffffffffffffffffffffffffffff82169050919050565b6000620002a08262000273565b9050919050565b620002b28162000293565b8114620002be57600080fd5b50565b600081519050620002d281620002a7565b92915050565b60008060408385031215620002f257620002f16200026e565b5b60006200030285828601620002c1565b92505060206200031585828601620002c1565b9150509250929050565b600081519050919050565b7f4e487b7100000000000000000000000000000000000000000000000000000000600052604160045260246000fd5b7f4e487b7100000000000000000000000000000000000000000000000000000000600052602260045260246000fd5b60006002820490506001821680620003a157607f821691505b602082108103620003b757620003b662000359565b5b50919050565b60008190508160005260206000209050919050565b60006020601f8301049050919050565b600082821b905092915050565b600060088302620004217fffffffffffffffffffffffffffffffffffffffffffffffffffffffffffffffff82620003e2565b6200042d8683620003e2565b95508019841693508086168417925050509392505050565b6000819050919050565b6000819050919050565b60006200047a620004746200046e8462000445565b6200044f565b62000445565b9050919050565b6000819050919050565b620004968362000459565b620004ae620004a58262000481565b848454620003ef565b825550505050565b600090565b620004c5620004b6565b620004d28184846200048b565b505050565b5b81811015620004fa57620004ee600082620004bb565b600181019050620004d8565b5050565b601f82111562000549576200051381620003bd565b6200051e84620003d2565b810160208510156200052e578190505b620005466200053d85620003d2565b830182620004d7565b50505b505050565b600082821c905092915050565b60006200056e600019846008026200054e565b1980831691505092915050565b60006200058983836200055b565b9150826002028217905092915050565b620005a4826200031f565b67ffffffffffffffff811115620005c057620005bf6200032a565b5b620005cc825462000388565b620005d9828285620004fe565b600060209050601f831160018114620006115760008415620005fc578287015190505b6200060885826200057b565b86555062000678565b601f1984166200062186620003bd565b60005b828110156200064b5784890151825560018201915060208501945060208101905062000624565b868310156200066b578489015162000667601f8916826200055b565b8355505b6001600288020188555050505b505050505050565b613dbd80620006906000396000f3fe608060405234801561001057600080fd5b506004361061014d5760003560e01c80636352211e116100c3578063a22cb4651161007c578063a22cb465146103a0578063b88d4fde146103bc578063c87b56dd146103d8578063d204c45e14610408578063e985e9c514610424578063f2fde38b146104545761014d565b80636352211e146102dc57806370a082311461030c578063715018a61461033c5780637b103999146103465780638da5cb5b1461036457806395d89b41146103825761014d565b806318160ddd1161011557806318160ddd1461020a57806323b872dd146102285780632f745c591461024457806342842e0e1461027457806342966c68146102905780634f6ccce7146102ac5761014d565b806301ffc9a71461015257806306fdde0314610182578063081812fc146101a0578063095ea7b3146101d057806311464fbe146101ec575b600080fd5b61016c600480360381019061016791906127f9565b610470565b6040516101799190612841565b60405180910390f35b61018a610482565b60405161019791906128ec565b60405180910390f35b6101ba60048036038101906101b59190612944565b610514565b6040516101c791906129b2565b60405180910390f35b6101ea60048036038101906101e591906129f9565b61055a565b005b6101f4610671565b60405161020191906129b2565b60405180910390f35b610212610697565b60405161021f9190612a48565b60405180910390f35b610242600480360381019061023d9190612a63565b6106a4565b005b61025e600480360381019061025991906129f9565b610704565b60405161026b9190612a48565b60405180910390f35b61028e60048036038101906102899190612a63565b6107a9565b005b6102aa60048036038101906102a59190612944565b6107c9565b005b6102c660048036038101906102c19190612944565b610825565b6040516102d39190612a48565b60405180910390f35b6102f660048036038101906102f19190612944565b610896565b60405161030391906129b2565b60405180910390f35b61032660048036038101906103219190612ab6565b61091c565b6040516103339190612a48565b60405180910390f35b6103446109d3565b005b61034e6109e7565b60405161035b9190612b42565b60405180910390f35b61036c610a0d565b60405161037991906129b2565b60405180910390f35b61038a610a37565b60405161039791906128ec565b60405180910390f35b6103ba60048036038101906103b59190612b89565b610ac9565b005b6103d660048036038101906103d19190612cfe565b610adf565b005b6103f260048036038101906103ed9190612944565b610b41565b6040516103ff91906128ec565b60405180910390f35b610422600480360381019061041d9190612e22565b610b53565b005b61043e60048036038101906104399190612e7e565b610cbf565b60405161044b9190612841565b60405180910390f35b61046e60048036038101906104699190612ab6565b610d53565b005b600061047b82610dec565b9050919050565b60606000805461049190612eed565b80601f01602080910402602001604051908101604052809291908181526020018280546104bd90612eed565b801561050a5780601f106104df5761010080835404028352916020019161050a565b820191906000526020600020905b8154815290600101906020018083116104ed57829003601f168201915b5050505050905090565b600061051f82610e4d565b6004600083815260200190815260200160002060009054906101000a900473ffffffffffffffffffffffffffffffffffffffff169050919050565b600061056582610896565b90508073ffffffffffffffffffffffffffffffffffffffff168373ffffffffffffffffffffffffffffffffffffffff16036105d5576040517f08c379a00000000000000000000000000000000000000000000000000000000081526004016105cc90612f90565b60405180910390fd5b8073ffffffffffffffffffffffffffffffffffffffff166105f4610e98565b73ffffffffffffffffffffffffffffffffffffffff16148061062357506106228161061d610e98565b610cbf565b5b610662576040517f08c379a000000000000000000000000000000000000000000000000000000000815260040161065990613022565b60405180910390fd5b61066c8383610ea0565b505050565b600d60009054906101000a900473ffffffffffffffffffffffffffffffffffffffff1681565b6000600880549050905090565b6106b56106af610e98565b82610f59565b6106f4576040517f08c379a00000000000000000000000000000000000000000000000000000000081526004016106eb906130b4565b60405180910390fd5b6106ff838383610fee565b505050565b600061070f8361091c565b8210610750576040517f08c379a000000000000000000000000000000000000000000000000000000000815260040161074790613146565b60405180910390fd5b600660008473ffffffffffffffffffffffffffffffffffffffff1673ffffffffffffffffffffffffffffffffffffffff168152602001908152602001600020600083815260200190815260200160002054905092915050565b6107c483838360405180602001604052806000815250610adf565b505050565b6107da6107d4610e98565b82610f59565b610819576040517f08c379a0000000000000000000000000000000000000000000000000000000008152600401610810906130b4565b60405180910390fd5b610822816112e7565b50565b600061082f610697565b8210610870576040517f08c379a0000000000000000000000000000000000000000000000000000000008152600401610867906131d8565b60405180910390fd5b60088281548110610884576108836131f8565b5b90600052602060002001549050919050565b6000806108a2836112f3565b9050600073ffffffffffffffffffffffffffffffffffffffff168173ffffffffffffffffffffffffffffffffffffffff1603610913576040517f08c379a000000000000000000000000000000000000000000000000000000000815260040161090a90613273565b60405180910390fd5b80915050919050565b60008073ffffffffffffffffffffffffffffffffffffffff168273ffffffffffffffffffffffffffffffffffffffff160361098c576040517f08c379a000000000000000000000000000000000000000000000000000000000815260040161098390613305565b60405180910390fd5b600360008373ffffffffffffffffffffffffffffffffffffffff1673ffffffffffffffffffffffffffffffffffffffff168152602001908152602001600020549050919050565b6109db611330565b6109e560006113ae565b565b600e60009054906101000a900473ffffffffffffffffffffffffffffffffffffffff1681565b6000600b60009054906101000a900473ffffffffffffffffffffffffffffffffffffffff16905090565b606060018054610a4690612eed565b80601f0160208091040260200160405190810160405280929190818152602001828054610a7290612eed565b8015610abf5780601f10610a9457610100808354040283529160200191610abf565b820191906000526020600020905b815481529060010190602001808311610aa257829003601f168201915b5050505050905090565b610adb610ad4610e98565b8383611474565b5050565b610af0610aea610e98565b83610f59565b610b2f576040517f08c379a0000000000000000000000000000000000000000000000000000000008152600401610b26906130b4565b60405180910390fd5b610b3b848484846115e0565b50505050565b6060610b4c8261163c565b9050919050565b6000610b5f600c61174e565b9050610b6b600c610dd6565b610b75838261175c565b610b7f818361177a565b6000600e60009054906101000a900473ffffffffffffffffffffffffffffffffffffffff1673ffffffffffffffffffffffffffffffffffffffff1663da7323b3600d60009054906101000a900473ffffffffffffffffffffffffffffffffffffffff16463086876040518663ffffffff1660e01b8152600401610c0695949392919061335c565b6020604051808303816000875af1158015610c25573d6000803e3d6000fd5b505050506040513d601f19601f82011682018060405250810190610c4991906133d7565b90508073ffffffffffffffffffffffffffffffffffffffff16828573ffffffffffffffffffffffffffffffffffffffff167f3f372cd7c49440e55fa69ce53b14ba6d4e80b78ea44ae7031a387dbddd7194a4610ca486610b41565b604051610cb191906128ec565b60405180910390a450505050565b6000600560008473ffffffffffffffffffffffffffffffffffffffff1673ffffffffffffffffffffffffffffffffffffffff16815260200190815260200160002060008373ffffffffffffffffffffffffffffffffffffffff1673ffffffffffffffffffffffffffffffffffffffff16815260200190815260200160002060009054906101000a900460ff16905092915050565b610d5b611330565b600073ffffffffffffffffffffffffffffffffffffffff168173ffffffffffffffffffffffffffffffffffffffff1603610dca576040517f08c379a0000000000000000000000000000000000000000000000000000000008152600401610dc190613476565b60405180910390fd5b610dd3816113ae565b50565b6001816000016000828254019250508190555050565b6000634906490660e01b7bffffffffffffffffffffffffffffffffffffffffffffffffffffffff1916827bffffffffffffffffffffffffffffffffffffffffffffffffffffffff19161480610e465750610e458261181e565b5b9050919050565b610e5681611898565b610e95576040517f08c379a0000000000000000000000000000000000000000000000000000000008152600401610e8c90613273565b60405180910390fd5b50565b600033905090565b816004600083815260200190815260200160002060006101000a81548173ffffffffffffffffffffffffffffffffffffffff021916908373ffffffffffffffffffffffffffffffffffffffff160217905550808273ffffffffffffffffffffffffffffffffffffffff16610f1383610896565b73ffffffffffffffffffffffffffffffffffffffff167f8c5be1e5ebec7d5bd14f71427d1e84f3dd0314c0f7b2291e5b200ac8c7c3b92560405160405180910390a45050565b600080610f6583610896565b90508073ffffffffffffffffffffffffffffffffffffffff168473ffffffffffffffffffffffffffffffffffffffff161480610fa75750610fa68185610cbf565b5b80610fe557508373ffffffffffffffffffffffffffffffffffffffff16610fcd84610514565b73ffffffffffffffffffffffffffffffffffffffff16145b91505092915050565b8273ffffffffffffffffffffffffffffffffffffffff1661100e82610896565b73ffffffffffffffffffffffffffffffffffffffff1614611064576040517f08c379a000000000000000000000000000000000000000000000000000000000815260040161105b90613508565b60405180910390fd5b600073ffffffffffffffffffffffffffffffffffffffff168273ffffffffffffffffffffffffffffffffffffffff16036110d3576040517f08c379a00000000000000000000000000000000000000000000000000000000081526004016110ca9061359a565b60405180910390fd5b6110e083838360016118d9565b8273ffffffffffffffffffffffffffffffffffffffff1661110082610896565b73ffffffffffffffffffffffffffffffffffffffff1614611156576040517f08c379a000000000000000000000000000000000000000000000000000000000815260040161114d90613508565b60405180910390fd5b6004600082815260200190815260200160002060006101000a81549073ffffffffffffffffffffffffffffffffffffffff02191690556001600360008573ffffffffffffffffffffffffffffffffffffffff1673ffffffffffffffffffffffffffffffffffffffff168152602001908152602001600020600082825403925050819055506001600360008473ffffffffffffffffffffffffffffffffffffffff1673ffffffffffffffffffffffffffffffffffffffff16815260200190815260200160002060008282540192505081905550816002600083815260200190815260200160002060006101000a81548173ffffffffffffffffffffffffffffffffffffffff021916908373ffffffffffffffffffffffffffffffffffffffff160217905550808273ffffffffffffffffffffffffffffffffffffffff168473ffffffffffffffffffffffffffffffffffffffff167fddf252ad1be2c89b69c2b068fc378daa952ba7f163c4a11628f55a4df523b3ef60405160405180910390a46112e283838360016118eb565b505050565b6112f0816118f1565b50565b60006002600083815260200190815260200160002060009054906101000a900473ffffffffffffffffffffffffffffffffffffffff169050919050565b611338610e98565b73ffffffffffffffffffffffffffffffffffffffff16611356610a0d565b73ffffffffffffffffffffffffffffffffffffffff16146113ac576040517f08c379a00000000000000000000000000000000000000000000000000000000081526004016113a390613606565b60405180910390fd5b565b6000600b60009054906101000a900473ffffffffffffffffffffffffffffffffffffffff16905081600b60006101000a81548173ffffffffffffffffffffffffffffffffffffffff021916908373ffffffffffffffffffffffffffffffffffffffff1602179055508173ffffffffffffffffffffffffffffffffffffffff168173ffffffffffffffffffffffffffffffffffffffff167f8be0079c531659141344cd1fd0a4f28419497f9722a3daafe3b4186f6b6457e060405160405180910390a35050565b8173ffffffffffffffffffffffffffffffffffffffff168373ffffffffffffffffffffffffffffffffffffffff16036114e2576040517f08c379a00000000000000000000000000000000000000000000000000000000081526004016114d990613672565b60405180910390fd5b80600560008573ffffffffffffffffffffffffffffffffffffffff1673ffffffffffffffffffffffffffffffffffffffff16815260200190815260200160002060008473ffffffffffffffffffffffffffffffffffffffff1673ffffffffffffffffffffffffffffffffffffffff16815260200190815260200160002060006101000a81548160ff0219169083151502179055508173ffffffffffffffffffffffffffffffffffffffff168373ffffffffffffffffffffffffffffffffffffffff167f17307eab39ab6107e8899845ad3d59bd9653f200f220920489ca2b5937696c31836040516115d39190612841565b60405180910390a3505050565b6115eb848484610fee565b6115f784848484611944565b611636576040517f08c379a000000000000000000000000000000000000000000000000000000000815260040161162d90613704565b60405180910390fd5b50505050565b606061164782610e4d565b6000600a6000848152602001908152602001600020805461166790612eed565b80601f016020809104026020016040519081016040528092919081815260200182805461169390612eed565b80156116e05780601f106116b5576101008083540402835291602001916116e0565b820191906000526020600020905b8154815290600101906020018083116116c357829003601f168201915b5050505050905060006116f1611acb565b90506000815103611706578192505050611749565b60008251111561173b578082604051602001611723929190613760565b60405160208183030381529060405292505050611749565b61174484611b08565b925050505b919050565b600081600001549050919050565b611776828260405180602001604052806000815250611b70565b5050565b61178382611898565b6117c2576040517f08c379a00000000000000000000000000000000000000000000000000000000081526004016117b9906137f6565b60405180910390fd5b80600a600084815260200190815260200160002090816117e291906139b8565b507ff8e1a15aba9398e019f0b49df1a4fde98ee17ae345cb5f6b5e2c27f5033e8ce7826040516118129190612a48565b60405180910390a15050565b60007f780e9d63000000000000000000000000000000000000000000000000000000007bffffffffffffffffffffffffffffffffffffffffffffffffffffffff1916827bffffffffffffffffffffffffffffffffffffffffffffffffffffffff19161480611891575061189082611bcb565b5b9050919050565b60008073ffffffffffffffffffffffffffffffffffffffff166118ba836112f3565b73ffffffffffffffffffffffffffffffffffffffff1614159050919050565b6118e584848484611cad565b50505050565b50505050565b6118fa81611e0b565b6000600a6000838152602001908152602001600020805461191a90612eed565b90501461194157600a600082815260200190815260200160002060006119409190612730565b5b50565b60006119658473ffffffffffffffffffffffffffffffffffffffff16611f59565b15611abe578373ffffffffffffffffffffffffffffffffffffffff1663150b7a0261198e610e98565b8786866040518563ffffffff1660e01b81526004016119b09493929190613ace565b6020604051808303816000875af19250505080156119ec57506040513d601f19601f820116820180604052508101906119e99190613b2f565b60015b611a6e573d8060008114611a1c576040519150601f19603f3d011682016040523d82523d6000602084013e611a21565b606091505b506000815103611a66576040517f08c379a0000000000000000000000000000000000000000000000000000000008152600401611a5d90613704565b60405180910390fd5b805181602001fd5b63150b7a0260e01b7bffffffffffffffffffffffffffffffffffffffffffffffffffffffff1916817bffffffffffffffffffffffffffffffffffffffffffffffffffffffff191614915050611ac3565b600190505b949350505050565b60606040518060400160405280600781526020017f697066733a2f2f00000000000000000000000000000000000000000000000000815250905090565b6060611b1382610e4d565b6000611b1d611acb565b90506000815111611b3d5760405180602001604052806000815250611b68565b80611b4784611f7c565b604051602001611b58929190613760565b6040516020818303038152906040525b915050919050565b611b7a838361204a565b611b876000848484611944565b611bc6576040517f08c379a0000000000000000000000000000000000000000000000000000000008152600401611bbd90613704565b60405180910390fd5b505050565b60007f80ac58cd000000000000000000000000000000000000000000000000000000007bffffffffffffffffffffffffffffffffffffffffffffffffffffffff1916827bffffffffffffffffffffffffffffffffffffffffffffffffffffffff19161480611c9657507f5b5e139f000000000000000000000000000000000000000000000000000000007bffffffffffffffffffffffffffffffffffffffffffffffffffffffff1916827bffffffffffffffffffffffffffffffffffffffffffffffffffffffff1916145b80611ca65750611ca582612267565b5b9050919050565b611cb9848484846122d1565b6001811115611cfd576040517f08c379a0000000000000000000000000000000000000000000000000000000008152600401611cf490613bce565b60405180910390fd5b6000829050600073ffffffffffffffffffffffffffffffffffffffff168573ffffffffffffffffffffffffffffffffffffffff1603611d4457611d3f816122d7565b611d83565b8373ffffffffffffffffffffffffffffffffffffffff168573ffffffffffffffffffffffffffffffffffffffff1614611d8257611d818582612320565b5b5b600073ffffffffffffffffffffffffffffffffffffffff168473ffffffffffffffffffffffffffffffffffffffff1603611dc557611dc08161248d565b611e04565b8473ffffffffffffffffffffffffffffffffffffffff168473ffffffffffffffffffffffffffffffffffffffff1614611e0357611e02848261255e565b5b5b5050505050565b6000611e1682610896565b9050611e268160008460016118d9565b611e2f82610896565b90506004600083815260200190815260200160002060006101000a81549073ffffffffffffffffffffffffffffffffffffffff02191690556001600360008373ffffffffffffffffffffffffffffffffffffffff1673ffffffffffffffffffffffffffffffffffffffff168152602001908152602001600020600082825403925050819055506002600083815260200190815260200160002060006101000a81549073ffffffffffffffffffffffffffffffffffffffff021916905581600073ffffffffffffffffffffffffffffffffffffffff168273ffffffffffffffffffffffffffffffffffffffff167fddf252ad1be2c89b69c2b068fc378daa952ba7f163c4a11628f55a4df523b3ef60405160405180910390a4611f558160008460016118eb565b5050565b6000808273ffffffffffffffffffffffffffffffffffffffff163b119050919050565b606060006001611f8b846125dd565b01905060008167ffffffffffffffff811115611faa57611fa9612bd3565b5b6040519080825280601f01601f191660200182016040528015611fdc5781602001600182028036833780820191505090505b509050600082602001820190505b60011561203f578080600190039150507f3031323334353637383961626364656600000000000000000000000000000000600a86061a8153600a858161203357612032613bee565b5b04945060008503611fea575b819350505050919050565b600073ffffffffffffffffffffffffffffffffffffffff168273ffffffffffffffffffffffffffffffffffffffff16036120b9576040517f08c379a00000000000000000000000000000000000000000000000000000000081526004016120b090613c69565b60405180910390fd5b6120c281611898565b15612102576040517f08c379a00000000000000000000000000000000000000000000000000000000081526004016120f990613cd5565b60405180910390fd5b6121106000838360016118d9565b61211981611898565b15612159576040517f08c379a000000000000000000000000000000000000000000000000000000000815260040161215090613cd5565b60405180910390fd5b6001600360008473ffffffffffffffffffffffffffffffffffffffff1673ffffffffffffffffffffffffffffffffffffffff16815260200190815260200160002060008282540192505081905550816002600083815260200190815260200160002060006101000a81548173ffffffffffffffffffffffffffffffffffffffff021916908373ffffffffffffffffffffffffffffffffffffffff160217905550808273ffffffffffffffffffffffffffffffffffffffff16600073ffffffffffffffffffffffffffffffffffffffff167fddf252ad1be2c89b69c2b068fc378daa952ba7f163c4a11628f55a4df523b3ef60405160405180910390a46122636000838360016118eb565b5050565b60007f01ffc9a7000000000000000000000000000000000000000000000000000000007bffffffffffffffffffffffffffffffffffffffffffffffffffffffff1916827bffffffffffffffffffffffffffffffffffffffffffffffffffffffff1916149050919050565b50505050565b6008805490506009600083815260200190815260200160002081905550600881908060018154018082558091505060019003906000526020600020016000909190919091505550565b6000600161232d8461091c565b6123379190613d24565b905060006007600084815260200190815260200160002054905081811461241c576000600660008673ffffffffffffffffffffffffffffffffffffffff1673ffffffffffffffffffffffffffffffffffffffff168152602001908152602001600020600084815260200190815260200160002054905080600660008773ffffffffffffffffffffffffffffffffffffffff1673ffffffffffffffffffffffffffffffffffffffff168152602001908152602001600020600084815260200190815260200160002081905550816007600083815260200190815260200160002081905550505b6007600084815260200190815260200160002060009055600660008573ffffffffffffffffffffffffffffffffffffffff1673ffffffffffffffffffffffffffffffffffffffff16815260200190815260200160002060008381526020019081526020016000206000905550505050565b600060016008805490506124a19190613d24565b90506000600960008481526020019081526020016000205490506000600883815481106124d1576124d06131f8565b5b9060005260206000200154905080600883815481106124f3576124f26131f8565b5b90600052602060002001819055508160096000838152602001908152602001600020819055506009600085815260200190815260200160002060009055600880548061254257612541613d58565b5b6001900381819060005260206000200160009055905550505050565b60006125698361091c565b905081600660008573ffffffffffffffffffffffffffffffffffffffff1673ffffffffffffffffffffffffffffffffffffffff168152602001908152602001600020600083815260200190815260200160002081905550806007600084815260200190815260200160002081905550505050565b600080600090507a184f03e93ff9f4daa797ed6e38ed64bf6a1f010000000000000000831061263b577a184f03e93ff9f4daa797ed6e38ed64bf6a1f010000000000000000838161263157612630613bee565b5b0492506040810190505b6d04ee2d6d415b85acef81000000008310612678576d04ee2d6d415b85acef8100000000838161266e5761266d613bee565b5b0492506020810190505b662386f26fc1000083106126a757662386f26fc10000838161269d5761269c613bee565b5b0492506010810190505b6305f5e10083106126d0576305f5e10083816126c6576126c5613bee565b5b0492506008810190505b61271083106126f55761271083816126eb576126ea613bee565b5b0492506004810190505b60648310612718576064838161270e5761270d613bee565b5b0492506002810190505b600a8310612727576001810190505b80915050919050565b50805461273c90612eed565b6000825580601f1061274e575061276d565b601f01602090049060005260206000209081019061276c9190612770565b5b50565b5b80821115612789576000816000905550600101612771565b5090565b6000604051905090565b600080fd5b600080fd5b60007fffffffff0000000000000000000000000000000000000000000000000000000082169050919050565b6127d6816127a1565b81146127e157600080fd5b50565b6000813590506127f3816127cd565b92915050565b60006020828403121561280f5761280e612797565b5b600061281d848285016127e4565b91505092915050565b60008115159050919050565b61283b81612826565b82525050565b60006020820190506128566000830184612832565b92915050565b600081519050919050565b600082825260208201905092915050565b60005b8381101561289657808201518184015260208101905061287b565b60008484015250505050565b6000601f19601f8301169050919050565b60006128be8261285c565b6128c88185612867565b93506128d8818560208601612878565b6128e1816128a2565b840191505092915050565b6000602082019050818103600083015261290681846128b3565b905092915050565b6000819050919050565b6129218161290e565b811461292c57600080fd5b50565b60008135905061293e81612918565b92915050565b60006020828403121561295a57612959612797565b5b60006129688482850161292f565b91505092915050565b600073ffffffffffffffffffffffffffffffffffffffff82169050919050565b600061299c82612971565b9050919050565b6129ac81612991565b82525050565b60006020820190506129c760008301846129a3565b92915050565b6129d681612991565b81146129e157600080fd5b50565b6000813590506129f3816129cd565b92915050565b60008060408385031215612a1057612a0f612797565b5b6000612a1e858286016129e4565b9250506020612a2f8582860161292f565b9150509250929050565b612a428161290e565b82525050565b6000602082019050612a5d6000830184612a39565b92915050565b600080600060608486031215612a7c57612a7b612797565b5b6000612a8a868287016129e4565b9350506020612a9b868287016129e4565b9250506040612aac8682870161292f565b9150509250925092565b600060208284031215612acc57612acb612797565b5b6000612ada848285016129e4565b91505092915050565b6000819050919050565b6000612b08612b03612afe84612971565b612ae3565b612971565b9050919050565b6000612b1a82612aed565b9050919050565b6000612b2c82612b0f565b9050919050565b612b3c81612b21565b82525050565b6000602082019050612b576000830184612b33565b92915050565b612b6681612826565b8114612b7157600080fd5b50565b600081359050612b8381612b5d565b92915050565b60008060408385031215612ba057612b9f612797565b5b6000612bae858286016129e4565b9250506020612bbf85828601612b74565b9150509250929050565b600080fd5b600080fd5b7f4e487b7100000000000000000000000000000000000000000000000000000000600052604160045260246000fd5b612c0b826128a2565b810181811067ffffffffffffffff82111715612c2a57612c29612bd3565b5b80604052505050565b6000612c3d61278d565b9050612c498282612c02565b919050565b600067ffffffffffffffff821115612c6957612c68612bd3565b5b612c72826128a2565b9050602081019050919050565b82818337600083830152505050565b6000612ca1612c9c84612c4e565b612c33565b905082815260208101848484011115612cbd57612cbc612bce565b5b612cc8848285612c7f565b509392505050565b600082601f830112612ce557612ce4612bc9565b5b8135612cf5848260208601612c8e565b91505092915050565b60008060008060808587031215612d1857612d17612797565b5b6000612d26878288016129e4565b9450506020612d37878288016129e4565b9350506040612d488782880161292f565b925050606085013567ffffffffffffffff811115612d6957612d6861279c565b5b612d7587828801612cd0565b91505092959194509250565b600067ffffffffffffffff821115612d9c57612d9b612bd3565b5b612da5826128a2565b9050602081019050919050565b6000612dc5612dc084612d81565b612c33565b905082815260208101848484011115612de157612de0612bce565b5b612dec848285612c7f565b509392505050565b600082601f830112612e0957612e08612bc9565b5b8135612e19848260208601612db2565b91505092915050565b60008060408385031215612e3957612e38612797565b5b6000612e47858286016129e4565b925050602083013567ffffffffffffffff811115612e6857612e6761279c565b5b612e7485828601612df4565b9150509250929050565b60008060408385031215612e9557612e94612797565b5b6000612ea3858286016129e4565b9250506020612eb4858286016129e4565b9150509250929050565b7f4e487b7100000000000000000000000000000000000000000000000000000000600052602260045260246000fd5b60006002820490506001821680612f0557607f821691505b602082108103612f1857612f17612ebe565b5b50919050565b7f4552433732313a20617070726f76616c20746f2063757272656e74206f776e6560008201527f7200000000000000000000000000000000000000000000000000000000000000602082015250565b6000612f7a602183612867565b9150612f8582612f1e565b604082019050919050565b60006020820190508181036000830152612fa981612f6d565b9050919050565b7f4552433732313a20617070726f76652063616c6c6572206973206e6f7420746f60008201527f6b656e206f776e6572206f7220617070726f76656420666f7220616c6c000000602082015250565b600061300c603d83612867565b915061301782612fb0565b604082019050919050565b6000602082019050818103600083015261303b81612fff565b9050919050565b7f4552433732313a2063616c6c6572206973206e6f7420746f6b656e206f776e6560008201527f72206f7220617070726f76656400000000000000000000000000000000000000602082015250565b600061309e602d83612867565b91506130a982613042565b604082019050919050565b600060208201905081810360008301526130cd81613091565b9050919050565b7f455243373231456e756d657261626c653a206f776e657220696e646578206f7560008201527f74206f6620626f756e6473000000000000000000000000000000000000000000602082015250565b6000613130602b83612867565b915061313b826130d4565b604082019050919050565b6000602082019050818103600083015261315f81613123565b9050919050565b7f455243373231456e756d657261626c653a20676c6f62616c20696e646578206f60008201527f7574206f6620626f756e64730000000000000000000000000000000000000000602082015250565b60006131c2602c83612867565b91506131cd82613166565b604082019050919050565b600060208201905081810360008301526131f1816131b5565b9050919050565b7f4e487b7100000000000000000000000000000000000000000000000000000000600052603260045260246000fd5b7f4552433732313a20696e76616c696420746f6b656e2049440000000000000000600082015250565b600061325d601883612867565b915061326882613227565b602082019050919050565b6000602082019050818103600083015261328c81613250565b9050919050565b7f4552433732313a2061646472657373207a65726f206973206e6f74206120766160008201527f6c6964206f776e65720000000000000000000000000000000000000000000000602082015250565b60006132ef602983612867565b91506132fa82613293565b604082019050919050565b6000602082019050818103600083015261331e816132e2565b9050919050565b600082825260208201905092915050565b50565b6000613346600083613325565b915061335182613336565b600082019050919050565b600060c08201905061337160008301886129a3565b61337e6020830187612a39565b61338b60408301866129a3565b6133986060830185612a39565b6133a56080830184612a39565b81810360a08301526133b681613339565b90509695505050505050565b6000815190506133d1816129cd565b92915050565b6000602082840312156133ed576133ec612797565b5b60006133fb848285016133c2565b91505092915050565b7f4f776e61626c653a206e6577206f776e657220697320746865207a65726f206160008201527f6464726573730000000000000000000000000000000000000000000000000000602082015250565b6000613460602683612867565b915061346b82613404565b604082019050919050565b6000602082019050818103600083015261348f81613453565b9050919050565b7f4552433732313a207472616e736665722066726f6d20696e636f72726563742060008201527f6f776e6572000000000000000000000000000000000000000000000000000000602082015250565b60006134f2602583612867565b91506134fd82613496565b604082019050919050565b60006020820190508181036000830152613521816134e5565b9050919050565b7f4552433732313a207472616e7366657220746f20746865207a65726f2061646460008201527f7265737300000000000000000000000000000000000000000000000000000000602082015250565b6000613584602483612867565b915061358f82613528565b604082019050919050565b600060208201905081810360008301526135b381613577565b9050919050565b7f4f776e61626c653a2063616c6c6572206973206e6f7420746865206f776e6572600082015250565b60006135f0602083612867565b91506135fb826135ba565b602082019050919050565b6000602082019050818103600083015261361f816135e3565b9050919050565b7f4552433732313a20617070726f766520746f2063616c6c657200000000000000600082015250565b600061365c601983612867565b915061366782613626565b602082019050919050565b6000602082019050818103600083015261368b8161364f565b9050919050565b7f4552433732313a207472616e7366657220746f206e6f6e20455243373231526560008201527f63656976657220696d706c656d656e7465720000000000000000000000000000602082015250565b60006136ee603283612867565b91506136f982613692565b604082019050919050565b6000602082019050818103600083015261371d816136e1565b9050919050565b600081905092915050565b600061373a8261285c565b6137448185613724565b9350613754818560208601612878565b80840191505092915050565b600061376c828561372f565b9150613778828461372f565b91508190509392505050565b7f45524337323155524953746f726167653a2055524920736574206f66206e6f6e60008201527f6578697374656e7420746f6b656e000000000000000000000000000000000000602082015250565b60006137e0602e83612867565b91506137eb82613784565b604082019050919050565b6000602082019050818103600083015261380f816137d3565b9050919050565b60008190508160005260206000209050919050565b60006020601f8301049050919050565b600082821b905092915050565b6000600883026138787fffffffffffffffffffffffffffffffffffffffffffffffffffffffffffffffff8261383b565b613882868361383b565b95508019841693508086168417925050509392505050565b60006138b56138b06138ab8461290e565b612ae3565b61290e565b9050919050565b6000819050919050565b6138cf8361389a565b6138e36138db826138bc565b848454613848565b825550505050565b600090565b6138f86138eb565b6139038184846138c6565b505050565b5b818110156139275761391c6000826138f0565b600181019050613909565b5050565b601f82111561396c5761393d81613816565b6139468461382b565b81016020851015613955578190505b6139696139618561382b565b830182613908565b50505b505050565b600082821c905092915050565b600061398f60001984600802613971565b1980831691505092915050565b60006139a8838361397e565b9150826002028217905092915050565b6139c18261285c565b67ffffffffffffffff8111156139da576139d9612bd3565b5b6139e48254612eed565b6139ef82828561392b565b600060209050601f831160018114613a225760008415613a10578287015190505b613a1a858261399c565b865550613a82565b601f198416613a3086613816565b60005b82811015613a5857848901518255600182019150602085019450602081019050613a33565b86831015613a755784890151613a71601f89168261397e565b8355505b6001600288020188555050505b505050505050565b600081519050919050565b6000613aa082613a8a565b613aaa8185613325565b9350613aba818560208601612878565b613ac3816128a2565b840191505092915050565b6000608082019050613ae360008301876129a3565b613af060208301866129a3565b613afd6040830185612a39565b8181036060830152613b0f8184613a95565b905095945050505050565b600081519050613b29816127cd565b92915050565b600060208284031215613b4557613b44612797565b5b6000613b5384828501613b1a565b91505092915050565b7f455243373231456e756d657261626c653a20636f6e736563757469766520747260008201527f616e7366657273206e6f7420737570706f727465640000000000000000000000602082015250565b6000613bb8603583612867565b9150613bc382613b5c565b604082019050919050565b60006020820190508181036000830152613be781613bab565b9050919050565b7f4e487b7100000000000000000000000000000000000000000000000000000000600052601260045260246000fd5b7f4552433732313a206d696e7420746f20746865207a65726f2061646472657373600082015250565b6000613c53602083612867565b9150613c5e82613c1d565b602082019050919050565b60006020820190508181036000830152613c8281613c46565b9050919050565b7f4552433732313a20746f6b656e20616c7265616479206d696e74656400000000600082015250565b6000613cbf601c83612867565b9150613cca82613c89565b602082019050919050565b60006020820190508181036000830152613cee81613cb2565b9050919050565b7f4e487b7100000000000000000000000000000000000000000000000000000000600052601160045260246000fd5b6000613d2f8261290e565b9150613d3a8361290e565b9250828203905081811115613d5257613d51613cf5565b5b92915050565b7f4e487b7100000000000000000000000000000000000000000000000000000000600052603160045260246000fdfea26469706673582212200054fa3b61ef97a8c86a3daf9adc84ed9534c6b64198e91d831a5429993e737764736f6c63430008120033",
  "devdoc": {
    "events": {
      "Approval(address,address,uint256)": {
        "details": "Emitted when `owner` enables `approved` to manage the `tokenId` token."
      },
      "ApprovalForAll(address,address,bool)": {
        "details": "Emitted when `owner` enables or disables (`approved`) `operator` to manage all of its assets."
      },
      "BatchMetadataUpdate(uint256,uint256)": {
        "details": "This event emits when the metadata of a range of tokens is changed. So that the third-party platforms such as NFT market could timely update the images and related attributes of the NFTs."
      },
      "MetadataUpdate(uint256)": {
        "details": "This event emits when the metadata of a token is changed. So that the third-party platforms such as NFT market could timely update the images and related attributes of the NFT."
      },
      "Transfer(address,address,uint256)": {
        "details": "Emitted when `tokenId` token is transferred from `from` to `to`."
      }
    },
    "kind": "dev",
    "methods": {
      "approve(address,uint256)": {
        "details": "See {IERC721-approve}."
      },
      "balanceOf(address)": {
        "details": "See {IERC721-balanceOf}."
      },
      "burn(uint256)": {
        "details": "Burns `tokenId`. See {ERC721-_burn}. Requirements: - The caller must own `tokenId` or be an approved operator."
      },
      "getApproved(uint256)": {
        "details": "See {IERC721-getApproved}."
      },
      "isApprovedForAll(address,address)": {
        "details": "See {IERC721-isApprovedForAll}."
      },
      "name()": {
        "details": "See {IERC721Metadata-name}."
      },
      "owner()": {
        "details": "Returns the address of the current owner."
      },
      "ownerOf(uint256)": {
        "details": "See {IERC721-ownerOf}."
      },
      "renounceOwnership()": {
        "details": "Leaves the contract without owner. It will not be possible to call `onlyOwner` functions. Can only be called by the current owner. NOTE: Renouncing ownership will leave the contract without an owner, thereby disabling any functionality that is only available to the owner."
      },
      "safeTransferFrom(address,address,uint256)": {
        "details": "See {IERC721-safeTransferFrom}."
      },
      "safeTransferFrom(address,address,uint256,bytes)": {
        "details": "See {IERC721-safeTransferFrom}."
      },
      "setApprovalForAll(address,bool)": {
        "details": "See {IERC721-setApprovalForAll}."
      },
      "symbol()": {
        "details": "See {IERC721Metadata-symbol}."
      },
      "tokenByIndex(uint256)": {
        "details": "See {IERC721Enumerable-tokenByIndex}."
      },
      "tokenOfOwnerByIndex(address,uint256)": {
        "details": "See {IERC721Enumerable-tokenOfOwnerByIndex}."
      },
      "totalSupply()": {
        "details": "See {IERC721Enumerable-totalSupply}."
      },
      "transferFrom(address,address,uint256)": {
        "details": "See {IERC721-transferFrom}."
      },
      "transferOwnership(address)": {
        "details": "Transfers ownership of the contract to a new account (`newOwner`). Can only be called by the current owner."
      }
    },
    "version": 1
  },
  "userdoc": {
    "kind": "user",
    "methods": {},
    "version": 1
  },
  "storageLayout": {
    "storage": [
      {
        "astId": 221,
        "contract": "contracts/BGAvatars.sol:BGAvatars",
        "label": "_name",
        "offset": 0,
        "slot": "0",
        "type": "t_string_storage"
      },
      {
        "astId": 223,
        "contract": "contracts/BGAvatars.sol:BGAvatars",
        "label": "_symbol",
        "offset": 0,
        "slot": "1",
        "type": "t_string_storage"
      },
      {
        "astId": 227,
        "contract": "contracts/BGAvatars.sol:BGAvatars",
        "label": "_owners",
        "offset": 0,
        "slot": "2",
        "type": "t_mapping(t_uint256,t_address)"
      },
      {
        "astId": 231,
        "contract": "contracts/BGAvatars.sol:BGAvatars",
        "label": "_balances",
        "offset": 0,
        "slot": "3",
        "type": "t_mapping(t_address,t_uint256)"
      },
      {
        "astId": 235,
        "contract": "contracts/BGAvatars.sol:BGAvatars",
        "label": "_tokenApprovals",
        "offset": 0,
        "slot": "4",
        "type": "t_mapping(t_uint256,t_address)"
      },
      {
        "astId": 241,
        "contract": "contracts/BGAvatars.sol:BGAvatars",
        "label": "_operatorApprovals",
        "offset": 0,
        "slot": "5",
        "type": "t_mapping(t_address,t_mapping(t_address,t_bool))"
      },
      {
        "astId": 1301,
        "contract": "contracts/BGAvatars.sol:BGAvatars",
        "label": "_ownedTokens",
        "offset": 0,
        "slot": "6",
        "type": "t_mapping(t_address,t_mapping(t_uint256,t_uint256))"
      },
      {
        "astId": 1305,
        "contract": "contracts/BGAvatars.sol:BGAvatars",
        "label": "_ownedTokensIndex",
        "offset": 0,
        "slot": "7",
        "type": "t_mapping(t_uint256,t_uint256)"
      },
      {
        "astId": 1308,
        "contract": "contracts/BGAvatars.sol:BGAvatars",
        "label": "_allTokens",
        "offset": 0,
        "slot": "8",
        "type": "t_array(t_uint256)dyn_storage"
      },
      {
        "astId": 1312,
        "contract": "contracts/BGAvatars.sol:BGAvatars",
        "label": "_allTokensIndex",
        "offset": 0,
        "slot": "9",
        "type": "t_mapping(t_uint256,t_uint256)"
      },
      {
        "astId": 1656,
        "contract": "contracts/BGAvatars.sol:BGAvatars",
        "label": "_tokenURIs",
        "offset": 0,
        "slot": "10",
        "type": "t_mapping(t_uint256,t_string_storage)"
      },
      {
        "astId": 7,
        "contract": "contracts/BGAvatars.sol:BGAvatars",
        "label": "_owner",
        "offset": 0,
        "slot": "11",
        "type": "t_address"
      },
      {
        "astId": 4392,
        "contract": "contracts/BGAvatars.sol:BGAvatars",
        "label": "_tokenIdCounter",
        "offset": 0,
        "slot": "12",
        "type": "t_struct(Counter)2212_storage"
      },
      {
        "astId": 4394,
        "contract": "contracts/BGAvatars.sol:BGAvatars",
        "label": "accountImplementation",
        "offset": 0,
        "slot": "13",
        "type": "t_address"
      },
      {
        "astId": 4397,
        "contract": "contracts/BGAvatars.sol:BGAvatars",
        "label": "registry",
        "offset": 0,
        "slot": "14",
        "type": "t_contract(IERC6551Registry)5413"
      }
    ],
    "types": {
      "t_address": {
        "encoding": "inplace",
        "label": "address",
        "numberOfBytes": "20"
      },
      "t_array(t_uint256)dyn_storage": {
        "base": "t_uint256",
        "encoding": "dynamic_array",
        "label": "uint256[]",
        "numberOfBytes": "32"
      },
      "t_bool": {
        "encoding": "inplace",
        "label": "bool",
        "numberOfBytes": "1"
      },
      "t_contract(IERC6551Registry)5413": {
        "encoding": "inplace",
        "label": "contract IERC6551Registry",
        "numberOfBytes": "20"
      },
      "t_mapping(t_address,t_bool)": {
        "encoding": "mapping",
        "key": "t_address",
        "label": "mapping(address => bool)",
        "numberOfBytes": "32",
        "value": "t_bool"
      },
      "t_mapping(t_address,t_mapping(t_address,t_bool))": {
        "encoding": "mapping",
        "key": "t_address",
        "label": "mapping(address => mapping(address => bool))",
        "numberOfBytes": "32",
        "value": "t_mapping(t_address,t_bool)"
      },
      "t_mapping(t_address,t_mapping(t_uint256,t_uint256))": {
        "encoding": "mapping",
        "key": "t_address",
        "label": "mapping(address => mapping(uint256 => uint256))",
        "numberOfBytes": "32",
        "value": "t_mapping(t_uint256,t_uint256)"
      },
      "t_mapping(t_address,t_uint256)": {
        "encoding": "mapping",
        "key": "t_address",
        "label": "mapping(address => uint256)",
        "numberOfBytes": "32",
        "value": "t_uint256"
      },
      "t_mapping(t_uint256,t_address)": {
        "encoding": "mapping",
        "key": "t_uint256",
        "label": "mapping(uint256 => address)",
        "numberOfBytes": "32",
        "value": "t_address"
      },
      "t_mapping(t_uint256,t_string_storage)": {
        "encoding": "mapping",
        "key": "t_uint256",
        "label": "mapping(uint256 => string)",
        "numberOfBytes": "32",
        "value": "t_string_storage"
      },
      "t_mapping(t_uint256,t_uint256)": {
        "encoding": "mapping",
        "key": "t_uint256",
        "label": "mapping(uint256 => uint256)",
        "numberOfBytes": "32",
        "value": "t_uint256"
      },
      "t_string_storage": {
        "encoding": "bytes",
        "label": "string",
        "numberOfBytes": "32"
      },
      "t_struct(Counter)2212_storage": {
        "encoding": "inplace",
        "label": "struct Counters.Counter",
        "members": [
          {
            "astId": 2211,
            "contract": "contracts/BGAvatars.sol:BGAvatars",
            "label": "_value",
            "offset": 0,
            "slot": "0",
            "type": "t_uint256"
          }
        ],
        "numberOfBytes": "32"
      },
      "t_uint256": {
        "encoding": "inplace",
        "label": "uint256",
        "numberOfBytes": "32"
      }
    }
  }
}