{
  "address": "0xE391b13A4819391f96DA2708D57fc54B72B4a68a",
  "abi": [
    {
      "inputs": [
        {
          "internalType": "address",
          "name": "to",
          "type": "address"
        },
        {
          "internalType": "uint256",
          "name": "value",
          "type": "uint256"
        },
        {
          "internalType": "bytes",
          "name": "data",
          "type": "bytes"
        },
        {
          "internalType": "uint256",
          "name": "operation",
          "type": "uint256"
        }
      ],
      "name": "execute",
      "outputs": [
        {
          "internalType": "bytes",
          "name": "result",
          "type": "bytes"
        }
      ],
      "stateMutability": "payable",
      "type": "function"
    },
    {
      "inputs": [
        {
          "internalType": "bytes32",
          "name": "hash",
          "type": "bytes32"
        },
        {
          "internalType": "bytes",
          "name": "signature",
          "type": "bytes"
        }
      ],
      "name": "isValidSignature",
      "outputs": [
        {
          "internalType": "bytes4",
          "name": "magicValue",
          "type": "bytes4"
        }
      ],
      "stateMutability": "view",
      "type": "function"
    },
    {
      "inputs": [
        {
          "internalType": "address",
          "name": "signer",
          "type": "address"
        },
        {
          "internalType": "bytes",
          "name": "",
          "type": "bytes"
        }
      ],
      "name": "isValidSigner",
      "outputs": [
        {
          "internalType": "bytes4",
          "name": "",
          "type": "bytes4"
        }
      ],
      "stateMutability": "view",
      "type": "function"
    },
    {
      "inputs": [
        {
          "internalType": "address",
          "name": "",
          "type": "address"
        },
        {
          "internalType": "address",
          "name": "",
          "type": "address"
        },
        {
          "internalType": "uint256[]",
          "name": "",
          "type": "uint256[]"
        },
        {
          "internalType": "uint256[]",
          "name": "",
          "type": "uint256[]"
        },
        {
          "internalType": "bytes",
          "name": "",
          "type": "bytes"
        }
      ],
      "name": "onERC1155BatchReceived",
      "outputs": [
        {
          "internalType": "bytes4",
          "name": "",
          "type": "bytes4"
        }
      ],
      "stateMutability": "pure",
      "type": "function"
    },
    {
      "inputs": [
        {
          "internalType": "address",
          "name": "",
          "type": "address"
        },
        {
          "internalType": "address",
          "name": "",
          "type": "address"
        },
        {
          "internalType": "uint256",
          "name": "",
          "type": "uint256"
        },
        {
          "internalType": "uint256",
          "name": "",
          "type": "uint256"
        },
        {
          "internalType": "bytes",
          "name": "",
          "type": "bytes"
        }
      ],
      "name": "onERC1155Received",
      "outputs": [
        {
          "internalType": "bytes4",
          "name": "",
          "type": "bytes4"
        }
      ],
      "stateMutability": "pure",
      "type": "function"
    },
    {
      "inputs": [
        {
          "internalType": "address",
          "name": "",
          "type": "address"
        },
        {
          "internalType": "address",
          "name": "",
          "type": "address"
        },
        {
          "internalType": "uint256",
          "name": "",
          "type": "uint256"
        },
        {
          "internalType": "bytes",
          "name": "",
          "type": "bytes"
        }
      ],
      "name": "onERC721Received",
      "outputs": [
        {
          "internalType": "bytes4",
          "name": "",
          "type": "bytes4"
        }
      ],
      "stateMutability": "pure",
      "type": "function"
    },
    {
      "inputs": [],
      "name": "owner",
      "outputs": [
        {
          "internalType": "address",
          "name": "",
          "type": "address"
        }
      ],
      "stateMutability": "view",
      "type": "function"
    },
    {
      "inputs": [],
      "name": "state",
      "outputs": [
        {
          "internalType": "uint256",
          "name": "",
          "type": "uint256"
        }
      ],
      "stateMutability": "view",
      "type": "function"
    },
    {
      "inputs": [
        {
          "internalType": "bytes4",
          "name": "interfaceId",
          "type": "bytes4"
        }
      ],
      "name": "supportsInterface",
      "outputs": [
        {
          "internalType": "bool",
          "name": "",
          "type": "bool"
        }
      ],
      "stateMutability": "pure",
      "type": "function"
    },
    {
      "inputs": [],
      "name": "token",
      "outputs": [
        {
          "internalType": "uint256",
          "name": "",
          "type": "uint256"
        },
        {
          "internalType": "address",
          "name": "",
          "type": "address"
        },
        {
          "internalType": "uint256",
          "name": "",
          "type": "uint256"
        }
      ],
      "stateMutability": "view",
      "type": "function"
    },
    {
      "stateMutability": "payable",
      "type": "receive"
    }
  ],
  "transactionHash": "0x82d5c78f33df797e7f788f717e56530a0c777fbccd2bdd24a2f4e0983a867a1d",
  "args": [],
  "numDeployments": 1,
  "solcInputHash": "5d93b39851727baee25a9c032ebed19e",
  "bytecode": "0x608060405234801561001057600080fd5b50611715806100206000396000f3fe6080604052600436106100955760003560e01c80638da5cb5b116100595780638da5cb5b146101c5578063bc197c81146101f0578063c19d93fb1461022d578063f23a6e6114610258578063fc0c546a146102955761009c565b806301ffc9a7146100a1578063150b7a02146100de5780631626ba7e1461011b578063523e32601461015857806374420f4c146101955761009c565b3661009c57005b600080fd5b3480156100ad57600080fd5b506100c860048036038101906100c39190610ab1565b6102c2565b6040516100d59190610af9565b60405180910390f35b3480156100ea57600080fd5b5061010560048036038101906101009190610c0d565b6103fc565b6040516101129190610ca4565b60405180910390f35b34801561012757600080fd5b50610142600480360381019061013d9190610e36565b610411565b60405161014f9190610ca4565b60405180910390f35b34801561016457600080fd5b5061017f600480360381019061017a9190610e92565b61044a565b60405161018c9190610ca4565b60405180910390f35b6101af60048036038101906101aa9190610ef2565b610478565b6040516101bc9190610ff9565b60405180910390f35b3480156101d157600080fd5b506101da6105a6565b6040516101e7919061102a565b60405180910390f35b3480156101fc57600080fd5b5061021760048036038101906102129190611108565b610650565b6040516102249190610ca4565b60405180910390f35b34801561023957600080fd5b50610242610665565b60405161024f91906111e6565b60405180910390f35b34801561026457600080fd5b5061027f600480360381019061027a9190611201565b61066b565b60405161028c9190610ca4565b60405180910390f35b3480156102a157600080fd5b506102aa610680565b6040516102b993929190611298565b60405180910390f35b60007f01ffc9a7000000000000000000000000000000000000000000000000000000007bffffffffffffffffffffffffffffffffffffffffffffffffffffffff1916827bffffffffffffffffffffffffffffffffffffffffffffffffffffffff1916148061038d57507f6faff5f1000000000000000000000000000000000000000000000000000000007bffffffffffffffffffffffffffffffffffffffffffffffffffffffff1916827bffffffffffffffffffffffffffffffffffffffffffffffffffffffff1916145b806103f557507f74420f4c000000000000000000000000000000000000000000000000000000007bffffffffffffffffffffffffffffffffffffffffffffffffffffffff1916827bffffffffffffffffffffffffffffffffffffffffffffffffffffffff1916145b9050919050565b600063150b7a0260e01b905095945050505050565b60008061042661041f6105a6565b8585610700565b9050801561043e57631626ba7e60e01b915050610444565b60009150505b92915050565b60006104558461078f565b156104695763523e326060e01b9050610471565b600060e01b90505b9392505050565b60606104833361078f565b6104c2576040517f08c379a00000000000000000000000000000000000000000000000000000000081526004016104b99061132c565b60405180910390fd5b60008214610505576040517f08c379a00000000000000000000000000000000000000000000000000000000081526004016104fc906113be565b60405180910390fd5b60008081546105139061140d565b9190508190555060008673ffffffffffffffffffffffffffffffffffffffff16868686604051610544929190611485565b60006040518083038185875af1925050503d8060008114610581576040519150601f19603f3d011682016040523d82523d6000602084013e610586565b606091505b5080935081925050508061059c57815160208301fd5b5095945050505050565b6000806000806105b4610680565b9250925092504683146105cd576000935050505061064d565b8173ffffffffffffffffffffffffffffffffffffffff16636352211e826040518263ffffffff1660e01b815260040161060691906111e6565b602060405180830381865afa158015610623573d6000803e3d6000fd5b505050506040513d601f19601f8201168201806040525081019061064791906114b3565b93505050505b90565b600063bc197c8160e01b905095945050505050565b60005481565b600063f23a6e6160e01b905095945050505050565b600080600080606067ffffffffffffffff8111156106a1576106a0610d0b565b5b6040519080825280601f01601f1916602001820160405280156106d35781602001600182028036833780820191505090505b5090506060604d60208301303c808060200190518101906106f49190611533565b93509350935050909192565b600080600061070f85856107ce565b915091506000600481111561072757610726611586565b5b81600481111561073a57610739611586565b5b14801561077257508573ffffffffffffffffffffffffffffffffffffffff168273ffffffffffffffffffffffffffffffffffffffff16145b80610784575061078386868661081f565b5b925050509392505050565b60006107996105a6565b73ffffffffffffffffffffffffffffffffffffffff168273ffffffffffffffffffffffffffffffffffffffff16149050919050565b600080604183510361080f5760008060006020860151925060408601519150606086015160001a905061080387828585610963565b94509450505050610818565b60006002915091505b9250929050565b60008060008573ffffffffffffffffffffffffffffffffffffffff16631626ba7e60e01b86866040516024016108569291906115c4565b604051602081830303815290604052907bffffffffffffffffffffffffffffffffffffffffffffffffffffffff19166020820180517bffffffffffffffffffffffffffffffffffffffffffffffffffffffff83818316178352505050506040516108c09190611625565b600060405180830381855afa9150503d80600081146108fb576040519150601f19603f3d011682016040523d82523d6000602084013e610900565b606091505b509150915081801561091457506020815110155b80156109585750631626ba7e60e01b7bffffffffffffffffffffffffffffffffffffffffffffffffffffffff1916818060200190518101906109569190611651565b145b925050509392505050565b6000807f7fffffffffffffffffffffffffffffff5d576e7357a4501ddfe92f46681b20a08360001c111561099e576000600391509150610a3c565b6000600187878787604051600081526020016040526040516109c3949392919061169a565b6020604051602081039080840390855afa1580156109e5573d6000803e3d6000fd5b505050602060405103519050600073ffffffffffffffffffffffffffffffffffffffff168173ffffffffffffffffffffffffffffffffffffffff1603610a3357600060019250925050610a3c565b80600092509250505b94509492505050565b6000604051905090565b600080fd5b600080fd5b60007fffffffff0000000000000000000000000000000000000000000000000000000082169050919050565b610a8e81610a59565b8114610a9957600080fd5b50565b600081359050610aab81610a85565b92915050565b600060208284031215610ac757610ac6610a4f565b5b6000610ad584828501610a9c565b91505092915050565b60008115159050919050565b610af381610ade565b82525050565b6000602082019050610b0e6000830184610aea565b92915050565b600073ffffffffffffffffffffffffffffffffffffffff82169050919050565b6000610b3f82610b14565b9050919050565b610b4f81610b34565b8114610b5a57600080fd5b50565b600081359050610b6c81610b46565b92915050565b6000819050919050565b610b8581610b72565b8114610b9057600080fd5b50565b600081359050610ba281610b7c565b92915050565b600080fd5b600080fd5b600080fd5b60008083601f840112610bcd57610bcc610ba8565b5b8235905067ffffffffffffffff811115610bea57610be9610bad565b5b602083019150836001820283011115610c0657610c05610bb2565b5b9250929050565b600080600080600060808688031215610c2957610c28610a4f565b5b6000610c3788828901610b5d565b9550506020610c4888828901610b5d565b9450506040610c5988828901610b93565b935050606086013567ffffffffffffffff811115610c7a57610c79610a54565b5b610c8688828901610bb7565b92509250509295509295909350565b610c9e81610a59565b82525050565b6000602082019050610cb96000830184610c95565b92915050565b6000819050919050565b610cd281610cbf565b8114610cdd57600080fd5b50565b600081359050610cef81610cc9565b92915050565b600080fd5b6000601f19601f8301169050919050565b7f4e487b7100000000000000000000000000000000000000000000000000000000600052604160045260246000fd5b610d4382610cfa565b810181811067ffffffffffffffff82111715610d6257610d61610d0b565b5b80604052505050565b6000610d75610a45565b9050610d818282610d3a565b919050565b600067ffffffffffffffff821115610da157610da0610d0b565b5b610daa82610cfa565b9050602081019050919050565b82818337600083830152505050565b6000610dd9610dd484610d86565b610d6b565b905082815260208101848484011115610df557610df4610cf5565b5b610e00848285610db7565b509392505050565b600082601f830112610e1d57610e1c610ba8565b5b8135610e2d848260208601610dc6565b91505092915050565b60008060408385031215610e4d57610e4c610a4f565b5b6000610e5b85828601610ce0565b925050602083013567ffffffffffffffff811115610e7c57610e7b610a54565b5b610e8885828601610e08565b9150509250929050565b600080600060408486031215610eab57610eaa610a4f565b5b6000610eb986828701610b5d565b935050602084013567ffffffffffffffff811115610eda57610ed9610a54565b5b610ee686828701610bb7565b92509250509250925092565b600080600080600060808688031215610f0e57610f0d610a4f565b5b6000610f1c88828901610b5d565b9550506020610f2d88828901610b93565b945050604086013567ffffffffffffffff811115610f4e57610f4d610a54565b5b610f5a88828901610bb7565b93509350506060610f6d88828901610b93565b9150509295509295909350565b600081519050919050565b600082825260208201905092915050565b60005b83811015610fb4578082015181840152602081019050610f99565b60008484015250505050565b6000610fcb82610f7a565b610fd58185610f85565b9350610fe5818560208601610f96565b610fee81610cfa565b840191505092915050565b600060208201905081810360008301526110138184610fc0565b905092915050565b61102481610b34565b82525050565b600060208201905061103f600083018461101b565b92915050565b600067ffffffffffffffff8211156110605761105f610d0b565b5b602082029050602081019050919050565b600061108461107f84611045565b610d6b565b905080838252602082019050602084028301858111156110a7576110a6610bb2565b5b835b818110156110d057806110bc8882610b93565b8452602084019350506020810190506110a9565b5050509392505050565b600082601f8301126110ef576110ee610ba8565b5b81356110ff848260208601611071565b91505092915050565b600080600080600060a0868803121561112457611123610a4f565b5b600061113288828901610b5d565b955050602061114388828901610b5d565b945050604086013567ffffffffffffffff81111561116457611163610a54565b5b611170888289016110da565b935050606086013567ffffffffffffffff81111561119157611190610a54565b5b61119d888289016110da565b925050608086013567ffffffffffffffff8111156111be576111bd610a54565b5b6111ca88828901610e08565b9150509295509295909350565b6111e081610b72565b82525050565b60006020820190506111fb60008301846111d7565b92915050565b600080600080600060a0868803121561121d5761121c610a4f565b5b600061122b88828901610b5d565b955050602061123c88828901610b5d565b945050604061124d88828901610b93565b935050606061125e88828901610b93565b925050608086013567ffffffffffffffff81111561127f5761127e610a54565b5b61128b88828901610e08565b9150509295509295909350565b60006060820190506112ad60008301866111d7565b6112ba602083018561101b565b6112c760408301846111d7565b949350505050565b600082825260208201905092915050565b7f496e76616c6964207369676e6572000000000000000000000000000000000000600082015250565b6000611316600e836112cf565b9150611321826112e0565b602082019050919050565b6000602082019050818103600083015261134581611309565b9050919050565b7f4f6e6c792063616c6c206f7065726174696f6e732061726520737570706f727460008201527f6564000000000000000000000000000000000000000000000000000000000000602082015250565b60006113a86022836112cf565b91506113b38261134c565b604082019050919050565b600060208201905081810360008301526113d78161139b565b9050919050565b7f4e487b7100000000000000000000000000000000000000000000000000000000600052601160045260246000fd5b600061141882610b72565b91507fffffffffffffffffffffffffffffffffffffffffffffffffffffffffffffffff820361144a576114496113de565b5b600182019050919050565b600081905092915050565b600061146c8385611455565b9350611479838584610db7565b82840190509392505050565b6000611492828486611460565b91508190509392505050565b6000815190506114ad81610b46565b92915050565b6000602082840312156114c9576114c8610a4f565b5b60006114d78482850161149e565b91505092915050565b6000815190506114ef81610b7c565b92915050565b600061150082610b14565b9050919050565b611510816114f5565b811461151b57600080fd5b50565b60008151905061152d81611507565b92915050565b60008060006060848603121561154c5761154b610a4f565b5b600061155a868287016114e0565b935050602061156b8682870161151e565b925050604061157c868287016114e0565b9150509250925092565b7f4e487b7100000000000000000000000000000000000000000000000000000000600052602160045260246000fd5b6115be81610cbf565b82525050565b60006040820190506115d960008301856115b5565b81810360208301526115eb8184610fc0565b90509392505050565b60006115ff82610f7a565b6116098185611455565b9350611619818560208601610f96565b80840191505092915050565b600061163182846115f4565b915081905092915050565b60008151905061164b81610cc9565b92915050565b60006020828403121561166757611666610a4f565b5b60006116758482850161163c565b91505092915050565b600060ff82169050919050565b6116948161167e565b82525050565b60006080820190506116af60008301876115b5565b6116bc602083018661168b565b6116c960408301856115b5565b6116d660608301846115b5565b9594505050505056fea2646970667358221220d14362337003653b8f0478fa26fcb73cf7b7c0f6810bad93329e625074f27e7164736f6c63430008120033",
  "devdoc": {
    "kind": "dev",
    "methods": {
      "execute(address,uint256,bytes,uint256)": {
        "details": "Executes a low-level operation if the caller is a valid signer on the account Reverts and bubbles up error if operation fails",
        "params": {
          "data": "The encoded operation calldata",
          "operation": "A value indicating the type of operation to perform Accounts implementing this interface MUST accept the following operation parameter values: - 0 = CALL - 1 = DELEGATECALL - 2 = CREATE - 3 = CREATE2 Accounts implementing this interface MAY support additional operations or restrict a signer's ability to execute certain operations",
          "to": "The target address of the operation",
          "value": "The Ether value to be sent to the target"
        },
        "returns": {
          "result": "The result of the operation"
        }
      },
      "isValidSignature(bytes32,bytes)": {
        "details": "Should return whether the signature provided is valid for the provided data",
        "params": {
          "hash": "Hash of the data to be signed",
          "signature": "Signature byte array associated with _data"
        }
      },
      "onERC1155BatchReceived(address,address,uint256[],uint256[],bytes)": {
        "details": "Allows ERC-1155 token batches to be received. This function can be overriden."
      },
      "onERC1155Received(address,address,uint256,uint256,bytes)": {
        "details": "Allows ERC-1155 tokens to be received. This function can be overriden."
      },
      "onERC721Received(address,address,uint256,bytes)": {
        "details": "Allows ERC-721 tokens to be received so long as they do not cause an ownership cycle. This function can be overriden."
      },
      "supportsInterface(bytes4)": {
        "details": "Returns true if this contract implements the interface defined by `interfaceId`. See the corresponding https://eips.ethereum.org/EIPS/eip-165#how-interfaces-are-identified[EIP section] to learn more about how these ids are created. This function call must use less than 30 000 gas."
      },
      "token()": {
        "details": "Returns the identifier of the non-fungible token which owns the account The return value of this function MUST be constant - it MUST NOT change over time",
        "returns": {
          "_0": "      The EIP-155 ID of the chain the token exists on",
          "_1": "The contract address of the token",
          "_2": "      The ID of the token"
        }
      }
    },
    "stateVariables": {
      "state": {
        "details": "Returns a value that SHOULD be modified each time the account changes state",
        "return": "The current account state",
        "returns": {
          "_0": "The current account state"
        }
      }
    },
    "version": 1
  },
  "userdoc": {
    "kind": "user",
    "methods": {},
    "version": 1
  },
  "storageLayout": {
    "storage": [
      {
        "astId": 4086,
        "contract": "contracts/Account.sol:ERC6551Account",
        "label": "state",
        "offset": 0,
        "slot": "0",
        "type": "t_uint256"
      }
    ],
    "types": {
      "t_uint256": {
        "encoding": "inplace",
        "label": "uint256",
        "numberOfBytes": "32"
      }
    }
  }
}